:100000000C94F8020C943F030C943F030C943F03B0
:100010000C94BB130C943F030C943F030C943F03CC
:100020000C943F030C943F030C945A260C942C27F9
:100030000C9434210C943F030C943F030C943F0325
:100040000C943F030C943F030C943F030C943F0328
:100050000C943F030C949C210C943F030C943F039D
:100060000C943F030C943F030C943F030C943F0308
:100070000C943F030C943F030C943F030C943F03F8
:100080000C943F030C943F030C943F030C943F03E8
:100090000C943F030C943F030C943F030C943F03D8
:1000A0000C943F030C943F030C943F03DC16DC16C6
:1000B0000E170E175B178F188F188F1879170E18D9
:1000C0001F181F187F188F188F18881811191119E9
:1000D000231923191A19231923192319111911196D
:1000E0001F19231923191F199927C027B828C027BA
:1000F000B8280C282F28B8288628952829001E0003
:100100001F002000210022001D01350014001A00EC
:100110000800150017001B012B0004001600070043
:1001200009000A000601E1001D001B00060019007D
:1001300005001901E000E300E20002510151E10075
:100140004C0000000000000000000000E1002C0056
:100150002A0027002600250024002300AE004C00C2
:10016000130012000C0018001C003900340033008A
:100170000F000E000D000B004900287238003700F8
:10018000360010001100A8004F005200510050002E
:1001900001512C00280000000000000000000000B9
:1001A0002C0028003A003B003C003D003E003F0090
:1001B0000100010001004B002F023002010001008C
:1001C000010001004E00260227022E02010001005C
:1001D000010001002F0030002E000100010001008D
:1001E000010001000100010001000000000000000A
:1001F00000000000010001004500440043004200EF
:10020000410040000100310001004D0052004A0051
:1002100001000100310201004F00510050002D008B
:10022000010001004B00370236024E002D0227016B
:10023000A900AA00A800AB00AE0001000100000068
:100240000000000000000000010001003A003B0037
:100250003C003D003E003F00005C0100C25CC35C0E
:10026000C55CC75CC95C010001000100CD5CC65CD7
:10027000C85CCA5C0100010001000100010001002E
:100280000100010001000100010001000100010066
:10029000010000000000000000000000010001005B
:1002A0004500440043004200410040000100005C62
:1002B00046000100010001000100010049000100A9
:1002C0000100010001000100010001000100010026
:1002D0000100010001000100010001000100010016
:1002E000010001000100000000000000000000000B
:1002F0000100010000047F3F1F643214643214784F
:100300003C1E1E140A052223252628292A2C2D2FBF
:100310003032333536383A3B3D3E4042434547491B
:100320004A4C4E5051535557595A5C5E6062646650
:1003300068696B6D6F71737577797B7D7F8183855C
:1003400087898A8C8E90929496989A9C9E9FA1A35E
:10035000A5A7A8AAACAEAFB1B3B4B6B8B9BBBCBE82
:10036000BFC1C2C3C5C6C7C9CACBCCCDCED0D1D2FE
:10037000D2D3D4D5D6D7D7D8D9D9DADADBDBDBDC00
:10038000DCDCDCDCDDDDDDDDDCDCDCDCDCDBDBDBAC
:10039000DADAD9D9D8D7D7D6D5D4D3D2D2D1D0CE0C
:1003A000CDCCCBCAC9C7C6C5C3C2C1BFBEBCBBB911
:1003B000B8B6B4B3B1AFAEACAAA8A7A5A3A19F9E8F
:1003C0009C9A98969492908E8C8A89878583817F57
:1003D0007D7B79777573716F6D6B69686664626038
:1003E0005E5C5A5957555351504E4C4A4947454304
:1003F00042403E3D3B3A3836353332302F2D2C2AA1
:10040000292826252322FFAA7F554000000000004E
:1004100000000000000101010101010101010202CF
:10042000020202020202030303030303030404049F
:100430000404050505050506060606060707070761
:10044000080808080909090A0A0A0B0B0B0C0C0C0E
:100450000D0D0D0E0E0E0F0F1010101111121213A4
:10046000131414151516161717181819191A1A1B1C
:100470001C1C1D1D1E1F1F20212122232324252576
:1004800026272828292A2B2C2C2D2E2F30313132AB
:10049000333435363738393A3B3C3D3E3F404142B4
:1004A000434445464748494B4C4D4E4F5052535498
:1004B000555758595A5C5D5E606163646567686A48
:1004C0006B6C6E6F7172747677797A7C7D7F8182C6
:1004D000848687898B8D8E9092949597999B9D9F0A
:1004E000A1A2A4A6A8AAACAEB0B2B4B6B9BBBDBF17
:1004F000C1C3C5C8CACCCED0D3D5D7DADCDEE1E3E0
:10050000E6E8EAEDEFF2F4F7F9FCFF04033000004F
:1005100000080353006F006C0000000C03520047FA
:100520000042004B00420000000403090409023BA2
:1005300000020100A0FA0904000001030101000902
:1005400021110100012240000705810308000A096A
:1005500004010001030000000921110100012236FD
:10056000000705820320000A1201100100000008A4
:10057000EDFE603001000102030105010980A101C7
:1005800085031A81002A83001601002603009501C5
:1005900075108100C0050C0901A10185041A010034
:1005A0002A9C02160100269C02950175108100C04C
:1005B00005010906A101050719E029E71500250134
:1005C00095087501810295017508810105071900DB
:1005D00029FF150026FF00950675088100050819FA
:1005E000012905950575019102950175039101C0D9
:1005F00011241FBECFEFDAE0DEBFCDBF04B603FE8D
:1006000027C08091D0029091D102A091D202B091E6
:10061000D3028730904BA740B04BD1F41092D00258
:100620001092D1021092D2021092D30214BE84B75B
:10063000877F84BF0FB6F894A89580916000886189
:1006400080936000109260000FBEE0E0F8E309952F
:1006500011E0A0E0B1E0E2EEF2E502C005900D92FB
:10066000AE36B107D9F722E0AEE6B1E001C01D9287
:10067000A03DB207E1F70E9482230C946F290C94ED
:100680000000CF93C62F0E946C0B882351F160911C
:10069000290270912A0280912B0290912C020E94D3
:1006A000931F811108C0CC2319F08AEA90E016C08C
:1006B00089EA90E013C0813041F4CC2319F08DE237
:1006C00091E00CC08EE291E009C0823051F4CC235D
:1006D00019F082E590E002C081E590E0CF910C94A2
:1006E0002204CF910895CF938E3F2CE5920749F0D5
:1006F0008F3FECE59E0729F181159C4559F0C1E03B
:1007000021C0FB0182818823E1F00E94AE0C0E948F
:10071000BD1017C0FB01C281CC2339F00E946621B5
:1007200090936F0180936E010CC080916E01909147
:100730006F010E947221843F914018F00E947D0455
:1007400001C0C0E08C2FCF9108950F931F93CF93DA
:10075000DF939C013A9521153F4148F5EB018C014F
:1007600090FF03C080EEFB01099511FF03C081EEED
:10077000FE01099512FF03C082EEFE01099513FFE9
:1007800003C083EEFE0109950115104180F084EE4F
:10079000FE01099585EEFE01099586EEFE0109959B
:1007A00087EEFE01DF91CF911F910F910994DF91A8
:1007B000CF911F910F910895877091E001C0990F1B
:1007C0008A95EAF7892F0E94F51E0C94301F0C942D
:1007D000DC03877091E001C0990F8A95EAF7892FB1
:1007E0000E94FB1E0C94301F0C94E903CF93DF93FF
:1007F000EC01805E9109089710F0209719F46CEDD8
:1008000073E002C067EE73E0CE010E94A5038C2F57
:10081000DF91CF910C949A15CF93DF93EC010E9456
:100820005D16CE01805E9109089710F0209719F4AB
:1008300069EE73E002C064EF73E0CE01DF91CF9107
:100840000C94A503CF93DF93EC010E94F603CE0135
:10085000DF91CF910C940C0481E008950C94730304
:100860001F93CF93DF9300D000D01F92CDB7DEB798
:1008700049835A836B832091B90189819A8121111F
:1008800012C0662349F00E94611E182F682F8981CB
:100890009A810E940A1E03C00E94351E182F69818A
:1008A0007A81812F04C00E94611E69817A810F9034
:1008B0000F900F900F900F90DF91CF911F910C949C
:1008C0004707FC01408151816281738184810C94CE
:1008D00030040E94E31F811102C00E9483200E9405
:1008E000E3110C94FA090E94F4110C94F60908958E
:1008F0000C9477040C94780408950E94FF180E94C9
:100900007C042FEF84E39CE0215080409040E1F78D
:1009100000C000000C94C2210F931F93CF93DF936C
:100920008C010E946104EC01B8010E942E0488230E
:1009300009F4A3C2B801CE010E94CF12882309F4A2
:100940009CC2CB3CFCE5DF0741F4F801828188239F
:1009500009F493C20E94C60C90C2CC3C8CE5D80727
:1009600008F0C6C1C33C9CE5D90761F4F801828157
:10097000882309F482C20E94E21E8272F1F00E9472
:10098000B7107BC2C43CECE5DE07D0F0F8018281F1
:10099000C73CFCE5DF0709F486C108F093C1C53CFC
:1009A000ECE5DE0709F484C108F087C1882309F467
:1009B00064C20E94E21E827211F30E94AA105DC2FC
:1009C000C631FCE5DF0708F038C1C2308CE5D80736
:1009D00008F40FC1F8018281882309F411C10E9433
:1009E000E31F811102C00E9483200E94F61F909392
:1009F000C2028093C102CF30FCE5DF0709F4CDC00D
:100A000008F042C0C8309CE5D90709F4A8C0F0F44A
:100A1000C430FCE5DF0709F490C068F4C2309CE5FF
:100A2000D90709F486C0C330DC4509F0D9C08091EC
:100A3000C1028260D3C0C630FCE5DF0709F487C07D
:100A400008F089C08091C1028860C8C0CB309CE5A5
:100A5000D90709F493C068F4C930FCE5DF0709F44D
:100A600082C0CA30DC4509F0BBC08091C1028860F9
:100A70007EC0CD309CE5D90709F484C008F085C05C
:100A80008091C1028D7FAAC0C73FFCE5DF0709F452
:100A900057C050F5C2319CE5D90709F486C068F407
:100AA000C031FCE5DF0709F47CC0C131DC4509F049
:100AB00097C08091C1028F7B91C0C4319CE5D9075A
:100AC00009F483C008F475C0C531DC4509F088C05D
:100AD0008091C10282FB222720F991E0922790FBAE
:100AE00082F990FB83F97AC0CA3F8CE5D80709F4F4
:100AF00050C058F4C83FECE5DE0729F1C93FDC459A
:100B000009F06EC08091C2025CC0CC3F8CE5D80772
:100B100009F454C070F1CD3FDC4509F061C080910B
:100B2000C202982F909591708E7F892B90FB81F94E
:100B300049C08091C102816051C08091C10217C03B
:100B40008091C20219C08091C20282603BC0809134
:100B5000C102806143C08091C10280623FC0809128
:100B6000C10280643BC08091C102806837C084604C
:100B700035C08091C2028260816024C08091C10230
:100B80008E7F2CC08091C10217C08091C102877FE7
:100B900025C08091C2028D7F15C08091C1028F7ED9
:100BA0001DC08091C1028F7D19C08091C1028F77D5
:100BB00015C08091C102877F8B7F10C08091C202D7
:100BC0008D7F8E7F8093C2020BC08091C10287FB14
:100BD000222720F991E0922790FB87F98093C102A8
:100BE0008091C1029091C2020E9407200E94FF18CA
:100BF00044C1C1159CE5D90751F0C130DC4579F0FD
:100C0000C801DF91CF911F910F910C942C04F80132
:100C10008281882309F431C10E947D042EC1F8012C
:100C20008281882309F429C180913E02982F9095F2
:100C300090FB80F980933E0220C1C631FCE5DF07BE
:100C400039F50E94E21E982FF80182812091190146
:100C500030911A01882379F09A7A81E009F480E0D2
:100C600080937001911102C069E201C065E3C9017E
:100C70000E94B8200AC080917001811102C069E20F
:100C800001C065E3C9010E94BA200E94301FF5C06F
:100C9000C23CDC4509F0B4CFF80182818111EDC07E
:100CA0000E94C510EAC08111E8C00E945D0EE5C037
:100CB0008111E3C00E94410EE0C08111DEC00E949C
:100CC0004E0EDBC0C93C9CE5D90729F48111D5C083
:100CD0000E947B0ED2C0CA3CDC4528F48111CDC0F5
:100CE0000E946C0ECAC08111C8C00E948A0EC5C085
:100CF000C33DFCE5DF0749F4F8018281882309F44C
:100D0000BCC088E10E94BA10B8C0C43D8CE5D807C9
:100D100008F069C0F8018281CF3CFCE5DF0771F47F
:100D2000882309F4AAC00E94BE0C863028F00E94D5
:100D3000BE0C883008F441CE86E0E4CFC03D9CE58F
:100D4000D90700F5CD3CECE5DE0729F4882309F44A
:100D500094C081E0D7CFCE3CDC4530F4882309F441
:100D60008CC00E94D70C89C0882309F486C00E94D9
:100D7000BE0C823028F00E94BE0C853008F41DCED7
:100D800082E0C0CFC13D9CE5D90771F4882309F406
:100D900074C00E94BE0C8F3028F00E94BE0C8431BB
:100DA00008F40BCE8FE0AECFC23DDC4570F4882353
:100DB00009F463C00E94BE0C893028F00E94BE0C6A
:100DC0008E3008F4FACD89E09DCF882309F455C010
:100DD0000E94BE0C853128F00E94BE0C873108F4B9
:100DE000ECCD85E18FCFCD3DFCE5DF0749F4F8017F
:100DF0008281882309F441C082E00E9421243DC001
:100E0000CE3D8CE5D80738F5C53D9CE5D90731F4D2
:100E1000F8018281882389F183E274CFC53DECE536
:100E2000DE0778F4F8018281882339F10E94BE0C34
:100E3000893128F00E94BE0C823208F4BECD89E1CF
:100E400061CFCC3DDC4509F0DBCEF80182818823FF
:100E5000A1F080E0D2CFCE3D8CE5D80739F4F8017F
:100E60008281882351F00E94832007C0CE01875FD2
:100E70009C45079708F4AECDC3CE80E0DF91CF91BB
:100E80001F910F91089580E090E00895089524E562
:100E9000829FC0011124FC0127E0729FE00DF11D2B
:100EA0001124E60FF11DEE0FFF1FE450FF4F859157
:100EB00094910895880F991FFC01EC50FD4F859186
:100EC00094910895CF93DF930E9447070E941C09D5
:100ED000EC018115904508F041C0C11580E4D807A8
:100EE00008F028C1C83ED10510F5C03ED10508F074
:100EF0009FC1C83AD10578F4C53AD10508F0A2C01F
:100F0000C130D10509F494C108F445C1C430D105FC
:100F100008F08EC140C1CF3BD10508F49EC0C03C53
:100F2000D10508F438C1CE01805C9109F5C0C11526
:100F300090E2D90758F4C11521E0D20708F078C132
:100F4000C03FD10508F427C1D06572C1C11580E347
:100F5000D80708F0E5C0CE019F70DEC0C11595E549
:100F6000D90708F043C0C11524E5D20708F0F9C03D
:100F7000C11582E5D80708F5C11591E5D90708F034
:100F8000DCC0CE0174E0969587957A95E1F7837081
:100F90009C2F937021E030E002C0220F331F9A95FE
:100FA000E2F73C68382BCF70C695C69580E2C89FA3
:100FB000E0011124C22BD32B3BC19E0123703327A8
:100FC0008C2F86958695C115D34508F0BBC0C1E02E
:100FD000D0E002C0CC0FDD1F2A95E2F720E2829F0D
:100FE000C0011124C82BD92BDC6822C1C11529E509
:100FF000D207A0F4C11588E5D80708F0B7C0C1151D
:1010000096E5D90708F0C7C08C2F0E94B0098F71F0
:10101000C82FD0E0DC2FCC27D0620AC1C1152AE549
:10102000D20708F4A8C0CE0190568115904208F06E
:10103000B2C08D2F8F710E94B009DD27D0628F71F1
:10104000D82BF6C0C53AD10509F4A8C0C63AD105D7
:1010500009F0A7C0C2E8D0E4EBC0C83AD10509F452
:10106000A3C0C93AD10509F4A2C0CA3AD10509F40E
:10107000A1C0CB3AD10509F4A0C0CC3AD10509F4FE
:101080009FC0CB3BD10509F49EC0CC3BD10509F4F0
:101090009DC0CD3AD10509F49CC0C03BD10509F4EF
:1010A0009BC0CE3AD10509F49AC0CF3AD10509F4D4
:1010B00099C0C13BD10509F498C0C23BD10509F4E0
:1010C00097C0C33BD10509F496C0C43BD10509F4D0
:1010D00095C0C53BD10509F494C0C63BD10509F4C0
:1010E00093C0C73BD10509F492C0C83BD10509F4B0
:1010F00091C0C93BD10509F490C0CD3BD10509F49D
:101100008FC0CE3BD10509F48EC0CA3BD10509F48E
:101110008DC0C0E0D4E48CC00E945A07EC0188C0A6
:10112000CE019927D3FF03C0EC01D86C81C0EC013C
:10113000D06C7EC0DF70D06A7BC0DC2FCC27C16F43
:10114000D06A76C0C1E0D0E002C0CC0FDD1F2A9586
:10115000E2F720E2829FC0011124C82BD92BDA6864
:1011600067C0DC2FCC27C46FD06A62C0DC2FCC27CD
:10117000C06FD06A5DC08C2F8F700E94B00994E060
:10118000D695C7959A95E1F7CF70D0E0DC2FCC27A4
:10119000D069C82B4DC0C0E0D0E04AC0C1E8D0E45F
:1011A00047C0C3E8D0E444C0C2EED4E441C0C9EEB5
:1011B000D4E43EC0CAEED4E43BC0C5EBD4E438C0AE
:1011C000C6EBD4E435C0C3EBD4E432C0C4EBD4E402
:1011D0002FC0C7EBD4E42CC0CCECD4E429C0CDECB8
:1011E000D4E426C0C3E8D5E423C0CAE8D5E420C0CF
:1011F000C2E9D5E41DC0C4E9D5E41AC0C1E2D6E411
:1012000017C0C3E2D6E414C0C4E2D6E411C0C5E2FC
:10121000D6E40EC0C6E2D6E40BC0C7E2D6E408C0EE
:10122000CFE6D4E405C0C0E7D4E402C0CAE2D6E405
:10123000CE01DF91CF9108958238910569F1B0F424
:101240008133910509F46DC048F48932910509F4A0
:1012500063C08A32910509F469C008958533910508
:1012600009F455C089339105B9F00895833E91057D
:1012700069F138F4803E9105B1F0823E910509F1A3
:101280000895863E9105A9F1873E9105B9F1843E06
:10129000910509F064C023C02091C10220FD4FC018
:1012A00021FD4DC008958091C10280FD44C0809110
:1012B000C20280FF44C08091C10284FD42C083EE1F
:1012C0004DC08091C10282FF38C0F5CF8091C1022C
:1012D00082FD33C08091C20280FD31C0ECCF80918D
:1012E000C20281FF32C08091C10284FD2AC087EE14
:1012F00035C08091C10283FF26C0F5CF8091C10225
:1013000083FD21C08091C20281FD1FC0ECCF80917E
:10131000C10285FD1CC01DC08091C10285FD19C0A0
:1013200016C08091C10286FD16C017C08091C1020F
:1013300086FD13C010C089E311C082EE0FC080EE9D
:101340000DC080E00BC086EE09C084EE07C089E2C4
:1013500005C085E303C08AE201C081E390E00895FF
:101360009091C10292FF0DC0282F2871283019F4E6
:10137000877F846006C0282F2471243011F48B7F6E
:10138000886093FF0DC0282F2871283119F4877EBB
:10139000846106C0282F2471243111F48B7E88616A
:1013A0002091C20220FF0DC0382F3871383019F457
:1013B000877F816006C0382F3171313011F48E7F04
:1013C000886021FF0DC0282F2871283119F4877EED
:1013D000816106C0282F2171213111F48E7E886130
:1013E00094FD877E089508950C94F3090C94F409F4
:1013F0000C94F3090C94F809E82FF0E0E858FE4F3C
:10140000808108950895CF93DF9380913E02836099
:10141000886080933E0280910001809100018111DB
:1014200002C096E001C090E090934E0286E0891BD6
:1014300080934D02ADE2B1E043E351E061E070E042
:101440008D91E82FE295EF70F0E021A18F70EB0114
:1014500002C0CC0FDD1F8A95E2F7CE019C2F90953C
:10146000922391A392A1892B82A34A175B0741F78C
:10147000A6E2B1E04DE251E061E070E08D91E82F2D
:10148000E295EF70F0E021A18F70EB0102C0CC0F6C
:10149000DD1F8A95E2F7CE019C2F9095922391A3B0
:1014A00092A1892B82A34A175B0741F7E8E7F1E095
:1014B00084E891E011928E179F07E1F786E00E9481
:1014C0002B0BDF91CF910C9469046F927F928F92D6
:1014D0009F92AF92BF92CF92DF92EF92FF920F93C3
:1014E0001F93CF93DF936DE271E0A2E7B1E028E7AD
:1014F000A22E21E0B22E712C01E010E06D019C9033
:101500001C92EB018991BE01E82FE295EF70F0E0AB
:1015100021A18F70A80102C0440F551F8A95E2F7E0
:10152000CA01242B21A322A1642E6094262122A388
:1015300050EA5A95F1F796E2E92E91E0F92E40E053
:1015400050E0E70189907E01282D22952F7030E030
:10155000E90128A130E0D82DDF7002C0359527952C
:10156000DA95E2F720FD07C09801042E01C0220F92
:101570000A94EAF702C020E030E03C91232B2C9340
:101580004F5F5F4F47305105E1F691A1D62DD9232A
:10159000D1A392A1892B82A3119681E0F6019081BB
:1015A000991101C080E0782AAA16BB0609F0A6CFDF
:1015B00060914E0270E068587E4F272D46E082E72A
:1015C00091E00E942C0B872DDF91CF911F910F91FD
:1015D000FF90EF90DF90CF90BF90AF909F908F9053
:1015E0007F906F900895CF930E94650AC82F0E9444
:1015F0006C0B882311F180914D0290E088589E4F2A
:101600000E94A00B811114C0809171018F5F8093A3
:101610007101863078F0E0914D02F0E0E858FE4F1D
:1016200080E090E01192019686309105D9F702C0D2
:10163000109271010E9473040BC080914E0290E0E1
:1016400088589E4F0E94BF0B0E94F4110E94F3091C
:101650008C2FCF9108950895FF920F931F93CF93EE
:10166000DF938C01F62ED72FC42F222349F081E07F
:10167000809386010E946621909385018093840166
:10168000809186018823C1F0809184019091850129
:101690000E947221069780F0EF2DFD2FD8014C2F6C
:1016A00050E0CD01801B910B841795071CF48D91A0
:1016B0008193F7CF10928601DF91CF911F910F9107
:1016C000FF9008958EE090E00E94272991E081111B
:1016D00001C090E0892F089580918701811112C087
:1016E0008091D80080618093D8008AE18A95F1F7D3
:1016F00000C08091D90080FD02C082E001C081E07D
:101700008093870181E090918701913009F080E01A
:1017100008950E94620B809300010E946C0B81115E
:101720000C94940B0C949A0B61E070E081E091E0D2
:101730000C946D1361E070E081E091E00C947413FF
:10174000CF93DF93D82FC92F0E940C14892B99F4C3
:10175000ED2FFC2F80E090E0DC01A757BE4F2C91CD
:101760002193019686309105B9F78FE891E00E94A8
:10177000361281E001C080E0DF91CF91089520E032
:1017800030E0FC014191CF01F901E757FE4F408362
:101790002F5F3F4F26303105A1F78FE891E00C9481
:1017A0003112CF92DF92EF92FF920F931F93CF935C
:1017B000DF93362F472F282FE82FF0E0711106C056
:1017C000E55FFB4F6491762F862F7BC0072F10E0DB
:1017D00056E0659FC0011124CFEFD0E0BE010E940A
:1017E000EC285BEA5603C001579F900D1124830F2C
:1017F000911D830F911D982F990F980F7E01E01A6C
:10180000F10AEE9ED001EF9EB00DFE9EB00D1124A8
:101810008B2F499FA0011124452F55277E01E41AE3
:10182000F50AEE9EA001EF9E500DFE9E500D112474
:101830006E01C91AD108C09E7001C19EF00CD09EE5
:10184000F00C11240F2D1127C01BD10BCE9F80014E
:10185000CF9F100DDE9F100D11246230710591F0A5
:1018600048F461157105E1F061307105B1F49B2F09
:10187000E52F0AC06430710569F040F066307105EB
:1018800079F00BC0912FEB2F822F0DC0922FEB2FF1
:10189000852F09C0922FE12F06C0952FE22F03C09C
:1018A0009B2FE22F812FF0E0E55FFB4F7491E82F33
:1018B000F0E0E55FFB4F6491E92FF0E0E55FFB4F5F
:1018C0008491DF91CF911F910F91FF90EF90DF9066
:1018D000CF9008950895CF93DF93762FE901682F75
:1018E000842F0E94D10B798368838A83DF91CF9103
:1018F0000895493708F048E70C946B0C80914F022B
:10190000282F269530E02115310519F48170826069
:1019100005C02532310524F08170886480934F0220
:1019200080915202893718F088E780935202089517
:1019300088E090E00C942F29CF92DF92EF92FF92F3
:101940006B017C010E947E0CB701A60188E090E04B
:10195000FF90EF90DF90CF900C944D29EFE4F2E0F0
:1019600083E0808311828FEF828388E783831482F0
:1019700060817181828193810C949C0C80914F02D3
:1019800080FF02C08695089580E0089580915302FB
:10199000833018F48F5F8093530260914F027091EF
:1019A000500280915102909152020C949C0C8091B3
:1019B0005302882319F081508093530260914F02A3
:1019C0007091500280915102909152020C949C0CA3
:1019D00060910D0170E080914F0280FF0AC08091FC
:1019E000940123E0829FC00111248C5A9D4F0C94D6
:1019F000DE118091930190910C01891780F7E82FF7
:101A0000F0E09F01220F331FE20FF31FEC5AFD4F4E
:101A10001182108212828F5FF0CF90914F0290FF5F
:101A200016C09091930120910C01921770F4E92F48
:101A3000F0E0DF01AA0FBB1FEA0FFB1FEC5AFD4FBE
:101A40008183608342839F5FF0CF0C94E80C0895FC
:101A5000CF93DF9300D01F92CDB7DEB790914F02A6
:101A600090FF0AC09E012F5F3F4F0E94790C4B816F
:101A700069818A810E940D0D0F900F900F90DF9168
:101A8000CF910895CF93DF93EC01EC81F0E0EA5F12
:101A9000FC4F4491EFE4F2E0628181810E94280DC5
:101AA0008C818F5F8C83DF91CF910895CF93DF93EB
:101AB000EC01EFE4F2E0438162818C810E94280D09
:101AC0008C818F5F8C83DF91CF9108950F931F934B
:101AD000CF93DF9300D01F92CDB7DEB78C018091FA
:101AE000900181110AC09E012F5F3F4F48E76FEFC1
:101AF0000E94790C8A8180939001F8018481813061
:101B000051F028F0823061F4409190010AC0809138
:101B1000900140E007C06091900140E080E003C088
:101B200040E080E060E00E940D0DF801848190E0CB
:101B3000019663E070E00E94002984830F900F906B
:101B40000F90DF91CF911F910F910895AF92BF92A7
:101B5000CF92DF92EF92FF920F931F93CF93DF9379
:101B600000D01F92CDB7DEB7182FF62E042FE22E2D
:101B700090914F0290FF6DC0E92FE695AE2FB0E037
:101B8000A75CBE4F8C9180939C019E7F923061F444
:101B90009E012F5F3F4F812F0E94790C4B816981FD
:101BA0008A810E940D0D43C0823019F400915202C7
:101BB0003EC0863019F41091500239C08930D9F3F3
:101BC0008931A9F5E9518E2F8170D82EE695F0E084
:101BD000EA5FFB4FA590B490C12CBB2460910B0130
:101BE000C61618F52C2D30E0A29EC001A39E900DC4
:101BF000B29E900D112470E00E94EC28812FD1102C
:101C000002C0860F01C0861B90919301290F311DE0
:101C1000A901440F551F240F351F2C5A3D4F402F4B
:101C20006F2D0E94790CC394D9CF0E94E80C1093B9
:101C30005002F092510200935202EE2051F0609156
:101C40004F027091500280915102909152020E9475
:101C50009C0C0F900F900F90DF91CF911F910F91DF
:101C6000FF90EF90DF90CF90BF90AF900895EFE49A
:101C7000F2E09181282F4381628188E0890F0C94E2
:101C8000A60D81E00C94370EEFE4F2E09181282F4D
:101C90004381628188EF890F0C94A60D81E00C943A
:101CA000440EEFE4F2E0628121E1620F08F46FEF8D
:101CB000282F438181810C94A60D81E00C94510E54
:101CC000EFE4F2E0628121E1621B08F460E0282F7A
:101CD000438181810C94A60D81E00C94600EEFE4A9
:101CE000F2E0438121E1420F08F44FEF282F628197
:101CF00081810C94A60D81E00C946F0EEFE4F2E06C
:101D0000438121E1421B08F440E0282F6281818158
:101D10000C94A60D81E00C947E0E20E00C94A60D90
:101D2000FF920F931F93CF93DF93EC01F12C0FEFF2
:101D300010E060910B01F616F0F4809193012F2DC5
:101D400030E0280F311DC901880F991F280F391F56
:101D50002C5A3D4F70E0C8010E940029962F8C81BB
:101D60004091520260915102F99E800D11240E940F
:101D7000790CF394DECF0E94E80C9A818C8190FF5D
:101D800002C08F5F01C081508C83DF91CF911F9182
:101D90000F91FF900895BF92CF92DF92EF92FF9242
:101DA0000F931F93CF93DF93FC01828180FF02C0CA
:101DB0000FEF01C001E010E080910B011817E0F572
:101DC00080919301C12ED12CE601C80FD11DCE0107
:101DD000880F991FC80FD91FCC5ADD4F198218825E
:101DE0001A8234E0E32EF12CB12C809192018B0DFC
:101DF00087FF03C090910B01890F082E000C990BEF
:101E0000C816D90691F4809152028E9DA0018F9D33
:101E1000500D112455954795559547959E01609114
:101E20005102809150020E94790CB00EF1E0EF1A3D
:101E3000F108D9F61F5FC0CF0E94E80C8091920193
:101E4000013031F4811102C080910B01815007C033
:101E500090E0019660910B0170E00E940029809350
:101E60009201DF91CF911F910F91FF90EF90DF9042
:101E7000CF90BF900895CF938091930190910C01E2
:101E8000891770F4E82FF0E09F01220F331FE20F53
:101E9000F31FEC5AFD4F1182108212828F5FF0CF38
:101EA000C0E060910B01C617C0F5EC2FF0E070E0C8
:101EB000CF010E94002920919301820F209191016E
:101EC000022E000C330B90E0E217F307CCF02091C8
:101ED0000A01022E000C330B2E173F078CF09C01D9
:101EE000220F331F820F931F9C012C5A3D4F4091AC
:101EF000520260915102809150020E94790C0BC0F5
:101F0000FC01EE0FFF1F8E0F9F1FFC01EC5AFD4FCF
:101F1000118210821282CF5FC4CF0E94E80C209100
:101F2000090180919101820F8093910190910A01A2
:101F3000920F90930A0119165CF4082E000C990B6D
:101F400040910B0150E041505109841795071CF056
:101F5000219520930901CF9108950F931F93CF935B
:101F6000DF938C01FC018481958101968170992712
:101F700095838483C0E0D5E580910B01C81700F5F7
:101F8000809193012C2F30E0280F311DC901880F5B
:101F9000991F280F391F2C5A3D4F4C2F4695F80199
:101FA00084819581840F911D8170409152026091CE
:101FB00051028D9F802D11240E94790CCF5FDCCFC0
:101FC000DF91CF911F910F910C94E80C0F931F9309
:101FD000CF93DF93EC0100E010E080910B01282FFC
:101FE00030E00217130724F5909193019801290F0F
:101FF000311DA901440F551F240F351F2C5A3D4F89
:10200000869590E04C81081719071CF4442331F0A1
:1020100002C0411103C04091520201C040E06091F2
:102020005102809150020E94790C0F5F1F4FD5CF53
:102030000E94E80C8C8190E00196817099278C8336
:10204000DF91CF911F910F910895EFE4F2E080812D
:102050008E7F808360817181828193810E949C0C3C
:1020600010929D012FEF80E792E021508040904038
:10207000E1F700C000000C94E80CEFE4F2E080818E
:102080008E7F808310929D012FEF80E792E0215098
:1020900080409040E1F700C000000C94E80C609193
:1020A0004F02669570E04BE050E08EE091E00E94B8
:1020B0001A29892B19F481E080939D010E946621E1
:1020C0009093960180939501089590914F0290FF0F
:1020D00035C09170811102C0926006C0853210F047
:1020E000986402C0880F982B90934F02662351F09A
:1020F00060914F0270915002809151029091520272
:102100000E949C0C60914F02669570E04BE050E09D
:102110008EE091E00E941A29892B19F010929D01FE
:1021200002C00E944F1081E08093980140915202BA
:1021300060915102809150020C948D0E0895682F89
:1021400090914F02969581E0890F853208F081E0E9
:102150000C94651081E00C949F10682F90914F02B1
:1021600096958FEF890F09F484E20C94651081E055
:102170000C94AD1061E00C946510EFE4F2E0808106
:102180008160808386950C94BA1080914F0280FD07
:102190000C9425100C94BD1060E00C946510809197
:1021A0009B01811133C080913E02816080933E0289
:1021B0000E94E31F811104C00E9483200E94AE0C84
:1021C0000E94980C60934F027093500280935102CA
:1021D000909352026E7F61F40E94AE0C0E94980CA4
:1021E00060934F0270935002809351029093520279
:1021F0000E947E0C10929D0180914F0280FF03C0CF
:1022000086950E94CC1081E080939B010895EFE4B5
:10221000F2E080818160808386950C94CC101092CE
:102220009D0108950F931F93CF93DF9380919D019C
:10223000882309F48CC080919C01E0914F02E695BF
:10224000E81BE0939701823049F4F0E0EE5FFC4F29
:10225000E491CE2FD0E002E41DE049C0863049F47D
:10226000F0E0E150FD4FE491CE2FD0E006E51DE017
:102270003EC0893051F4E695F0E0E450FD4FE49122
:10228000CE2FD0E000E91EE032C08F3051F4E69549
:10229000F0E0E750FD4FE491CE2FD0E00BEC1EE0D4
:1022A00026C0853149F4F0E0EA50FD4FE491CE2F8D
:1022B000D0E00BE31FE01BC0883181F0833239F49A
:1022C000E4EFF2E0C591D49106E61DE010C084323F
:1022D00051F4C4EFD1E006EE1FE009C0C8EED3E030
:1022E0000DEA1FE004C0C0EDD7E00AE61CE08091D3
:1022F0009801882389F0109298010E9466219E011E
:1023000020953095820F931F9093960180939501AD
:1023100010929A01109299018091950190919601E5
:102320000E9472218C179D0790F0E0919501F09129
:102330009601CE0FDF1FD0939601C093950185E9DA
:1023400091E0F801DF91CF911F910F910994DF91F6
:10235000CF911F910F91089525B1342F30952323EC
:1023600035B1432B3FB7F894FC01680F791FE6178E
:10237000F70789F0819198E045B9000000C087FF18
:1023800025B9880F000000C000C000C025B900C0FA
:102390009A9591F7ECCF3FBF089524B1242B24B92F
:1023A0009B01220F331F620F731F0E94AC1187EC39
:1023B00090E00197F1F700C00000089548E00C9408
:1023C000CD110C94410352985A9A56985E9A89B14D
:1023D00082FB882780F94E9902C090E001C092E00C
:1023E000892B8093A0010895E091A001EE0FEE0FDC
:1023F000E093A00149B142FB882780F990E049B100
:1024000046FB222720F930E046FF02C022E030E000
:10241000822B932B8E2B8093A0018F70E82FF0E0FE
:10242000E25AFE4F908180919E01890F80939E0118
:10243000843024F060E080E00E94E11180919E01F0
:102440008D3F24F461E080E00E94E11180919E01C3
:10245000837887FF03C081508C6F8F5F80939E01CC
:1024600008952091A001FC0120830895DC01EC91E6
:10247000EF70F0E0E25AFE4F908180919F01890F4A
:1024800080939F01843024F060E081E00E94E1119C
:1024900080919F018D3F24F461E081E00E94E11171
:1024A00080919F01837887FF03C081508C6F8F5F7D
:1024B00080939F0108950F931F93CF93DF93C62FAF
:1024C000D42F122FFC0182818823C9F06093A301CD
:1024D0000E9466219093A2018093A10180E28C0F5B
:1024E000883008F057C0C77081E001C0880FCA95D6
:1024F000EAF7DF91CF911F910F910C949C16809178
:10250000A301681330C08091A1019091A2010E94A3
:1025100072218639910538F500E20D0FCD17B9F01B
:1025200080E28C0F883040F4C77081E001C0880FD2
:10253000CA95EAF70E94A316083028F581E09D2F7E
:10254000977001C0880F9A95EAF70E949C16812F18
:102550000E9489160830F0F4D77081E001C0880F1E
:10256000DA95EAF70AC080E28C0F883098F4C770D9
:1025700081E001C0880FCA95EAF7DF91CF911F91E2
:102580000F910C94A316812FDF91CF911F910F9182
:102590000C948916DF91CF911F910F9108959C01A2
:1025A000CB01203F4CE53407F9F078F4283DFCE5F9
:1025B0003F07B9F0293D4CE5340711F1273D3C4573
:1025C00031F526E241EE61EE1EC0223FFCE53F07F9
:1025D00099F070F0233F3C45D1F427E245EE66EEDA
:1025E00012C027E245EE0EC026E241EE60EE0BC0BF
:1025F00027E245EE64EE07C026E241EE62EE03C03C
:1026000028E241E065EE0E945B1280E00895FC0143
:102610008281882319F01092A301089581E0089522
:102620008EE14B9B02C08150E1F74B9BFECF08959A
:102630005B9880E28A95F1F75B9A0895FC012AE0A5
:102640002A95F1F728E090E080E031E040E14A95FA
:10265000F1F7880F4B9B02C08160932700C00000F8
:1026600040E14A95F1F7215089F720E12A95F1F7E9
:1026700029B100C0000030E13A95F1F723FB222791
:1026800020F992272081920F90830895EF92FF9274
:102690000F931F93CF93DF931F92CDB7DEB71982AD
:1026A0008C017C01E60EF11C0E151F0551F00E94F5
:1026B0001013CE0101960E941E13F80181938F0121
:1026C000F3CF81E09981911180E00F90DF91CF915C
:1026D0001F910F91FF90EF9008959093A501809323
:1026E000A401539A5B9A08959093A5018093A40145
:1026F00053985B9AEB9AE9E6F0E080818F738083D0
:102700000895615091E001C0990F6A95EAF720E0C1
:1027100031E0992361F0492F482319F05B9A232770
:1027200001C05B9840E24A95F1F79695F2CF2223DB
:1027300011F05B9A01C05B9880E28A95F1F75B9893
:102740000895FF920F931F93CF93DF93EC018C01B9
:10275000060F111DC017D10741F0F9900E94181300
:1027600068E08F2D0E948113F5CFDF91CF911F91EB
:102770000F91FF9008951F920F920FB60F921124A0
:102780002F933F934F935F936F937F938F939F9379
:10279000AF93BF93CF93DF93EF93FF935B98539ADD
:1027A000C091A401D091A5016D81662321F08E8195
:1027B0009F810E94A1130E94181380E18A95F1F76E
:1027C0005B9853985B9A80E18A95F1F76A8166235A
:1027D00051F08B819C810E944613E881F98181111F
:1027E00004C082E003C0E881F98188E080830E9410
:1027F0001013FF91EF91DF91CF91BF91AF919F9116
:102800008F917F916F915F914F913F912F910F9099
:102810000FBE0F901F901895CF93DF93C091A40126
:10282000D091A501F894539A5B9885E08A95F1F7C9
:10283000000053985B9A80E28A95F1F74B9B0AC09F
:10284000539A5B9AE881F98181E08083789481E0F2
:1028500090E02CC06D81662381F08E819F810E9463
:10286000461381110AC0539A5B9AE881F98182E08C
:102870008083789482E090E019C00E94101380E277
:102880008A95F1F75B98539A80E18A95F1F76A810E
:10289000662321F08B819C810E94A1130E94181352
:1028A000E881F9811082789480E090E0DF91CF9107
:1028B00008959093AB018093AA010895E091AA0135
:1028C000F091AB01309721F00190F081E02D099457
:1028D00080E00895E091AA01F091AB01309721F0DA
:1028E0000280F381E02D099408952091A801309190
:1028F000A9012817390771F09093A9018093A801C5
:10290000E091AA01F091AB01309721F00680F781A8
:10291000E02D099408952091A6013091A701281770
:10292000390771F09093A7018093A601E091AA0165
:10293000F091AB01309721F00084F185E02D0994EE
:10294000089585B7806885BF85B7806885BF08957D
:1029500008950C94A8140C94A9140C94A8140E9423
:10296000A1140E94890B0C94AB140E945D210E945B
:10297000030A0E94E6210E94CF100C94AD14BF926E
:10298000CF92DF92EF92FF920F931F93CF93DF933B
:10299000CDB7DEB72A970FB6F894DEBF0FBECDBF16
:1029A0000E94F30A0E946C0B811111C08FEF898382
:1029B0008A831B820E9466218160782F9D838C838D
:1029C00049815A816B818D810E94661554C08DEAC0
:1029D000C82E81E0D82E00E010E0B02E802F0E949B
:1029E000FC09E82EF60121916F01F82EF22631F450
:1029F0000F5F1F4F0C30110581F7D8CF80913E0239
:102A000081FD0E94020A80E090E02F2D30E0482FE7
:102A1000B901082E02C0759567950A94E2F760FF28
:102A200025C08E83BF8281E090E06C0102C0CC0C97
:102A3000DD1C4A95E2F72E2D30E02C213D21232B81
:102A400009F480E088870E9466218160782F9A8748
:102A500089874E815F8168858A850E946615F801A5
:102A6000E355FE4F80818C25808305C00196873019
:102A7000910569F6BDCF0E945E149091AC01891753
:102A8000A9F00E945E148093AC012A960FB6F894C8
:102A9000DEBF0FBECDBFDF91CF911F910F91FF9091
:102AA000EF90DF90CF90BF900C947A042A960FB6E7
:102AB000F894DEBF0FBECDBFDF91CF911F910F9174
:102AC000FF90EF90DF90CF90BF900895CF93DF936A
:102AD000CDB7DEB72B970FB6F894DEBF0FBECDBFD4
:102AE0004F83588769877A878B87DE01119686E046
:102AF000FD0111928A95E9F785E0FE013796019074
:102B00000D928A95E1F749815A816B817C818D8193
:102B10009E810E94CF1B2B960FB6F894DEBF0FBE8E
:102B2000CDBFDF91CF910895FC01808191810E94FA
:102B3000A31E0895882309F4BFC0682F8CEF860F69
:102B4000813A38F48091190190911A010E94B820BD
:102B50000CC080E2860F883050F4677081E001C0BD
:102B6000880F6A95EAF70E94E51E0C94301F8BE5EA
:102B7000860F833070F4653A29F0663A31F083E8C5
:102B800090E005C081E890E002C082E890E00C94FB
:102B9000751488E5860F873108F08EC0683A09F40D
:102BA00045C0693A09F445C06A3A09F445C06B3A30
:102BB00009F445C06C3A09F445C06B3B09F445C0C3
:102BC0006C3B09F445C06D3A09F445C0603B09F41B
:102BD00045C06E3A09F445C06F3A09F445C0613BFF
:102BE00009F445C0623B09F445C0633B09F445C0A4
:102BF000643B09F445C0653B09F445C0663B09F4F4
:102C000045C0673B09F445C0683B09F445C0693BD2
:102C100009F445C06D3B09F445C06E3B09F445C05D
:102C20006A3B09F445C080E090E044C082EE90E049
:102C300041C089EE90E03EC08AEE90E03BC085EB5B
:102C400090E038C086EB90E035C083EB90E032C076
:102C500084EB90E02FC087EB90E02CC08CEC90E0F0
:102C600029C08DEC90E026C083E891E023C08AE87B
:102C700091E020C082E991E01DC084E991E01AC092
:102C800081E292E017C083E292E014C084E292E015
:102C900011C085E292E00EC086E292E00BC087E2AE
:102CA00092E008C08FE690E005C080E790E002C0A7
:102CB0008AE292E00C948B140895882349F1682FDE
:102CC0008CEF860F813A38F48091190190911A01A6
:102CD0000E94BA200CC080E2860F883050F46770E2
:102CE00081E001C0880F6A95EAF70E94EB1E0C9400
:102CF000301F8BE5860F833020F480E090E00C9449
:102D00007514685A673120F480E090E00C948B14BD
:102D10000895CF93C82F0E949A15C93349F42FEF15
:102D200087EE93E0215080409040E1F700C0000022
:102D30008C2FCF910C945D16882321F00E94E51E04
:102D40000C94301F0895882321F00E94EB1E0C94F0
:102D5000301F0895CF92DF92EF92FF920F931F934F
:102D6000CF93DF937C01062FC72FFC0115811295AD
:102D70001F70D281D1110E94021F0E94DB1E882386
:102D800079F0DD2369F080E2800F883048F082E03E
:102D90000E947A1F0E94DB1E91E0D82ED92601C026
:102DA000D12CCC2EC2948FE0C8228C2D90E0FC0157
:102DB000EA5AFF4F0C9414298C2F807FCF70882300
:102DC00011F0C295C07FDD2399F0CC2309F482C1B4
:102DD00080E2800F883010F0011104C08C2F0E9417
:102DE000E51E03C08C2F0E94F51E0E94301F72C189
:102DF000802F0E945D16CC2309F491C180E2800FE0
:102E0000883010F0011104C08C2F0E94EB1E03C00B
:102E10008C2F0E94FB1E0E94301F81C18C2F807F4F
:102E2000CF70803211F0C295C07F002319F00130BD
:102E3000C9F022C0DD2371F0112341F0113031F4CB
:102E40000E94151F8C2B0E941D1F69C10E94151F17
:102E50008C2B1DC0112319F0113009F460C10E94A0
:102E6000261F25C0DD2321F0163008F058C10EC002
:102E7000153008F054C11BC0DD2361F0112331F07F
:102E8000F701858180FF26C18F7085838C2F0E947A
:102E90009C1645C1112359F0093309F02CC1FFEFED
:102EA00027EE83E0F15020408040E1F722C18C2FD3
:102EB0000E94A31634C18C2F86958695837019F0D5
:102EC000813061F02CC1DD2321F0802F9C2F937085
:102ED00002C080E090E00E94751429C1DD2321F03A
:102EE000802F9C2F937002C080E090E00E948B1492
:102EF0001EC18C2F837009F045C0D11114C1402F21
:102F0000429546954770440F440F602F6F70862F8F
:102F100090E0A0E0B0E0042E04C0880F991FAA1F23
:102F2000BB1F0A94D2F704FF10C00FE010E020E0AE
:102F300030E004C0000F111F221F331F4A95D2F743
:102F4000009510952095309503C000E010E09801A1
:102F5000C695C695C370BC01CD01602B712B822B29
:102F6000932BC23049F058F4C13019F00E94201D53
:102F7000DAC00E940E1DD7C00E94321DD4C00E942C
:102F80000C1DD1C0DD2319F08C2F817001C08695F6
:102F9000882309F4C8C0402F429546954770440FD6
:102FA000440F602F6F70862F90E0A0E0B0E0042EF9
:102FB00004C0880F991FAA1FBB1F0A94D2F704FFF1
:102FC00010C00FE010E020E030E004C0000F111F3F
:102FD000221F331F4A95D2F7009510952095309502
:102FE00003C000E010E09801C695C695C370BC010F
:102FF000CD01602B712B822B932BC23049F058F4FA
:10300000C13019F00E94E51D8EC00E94D31D8BC0F7
:103010000E94F71D88C00E94461D85C0CF70DD2329
:1030200039F08C2F0E946C1D802F0E949C167BC053
:10303000802F0E94A3168C2F0E948D1D74C0023F0A
:1030400001F128F4003F41F0013FA1F03FC0033FF0
:10305000F9F0043F39F13AC0DD2341F0153008F0B2
:103060005EC08C2F8F710E94B21D59C0163008F0BF
:1030700056C0F7CFDD2339F08C2F8F710E946C1D65
:103080004EC0DD23C9F38C2F8F710E948D1D47C068
:10309000DD2329F08C2F8F710E94571D40C00E94A4
:1030A000521D3DC0DD2349F0CF718C2F0E946C1D55
:1030B00063E08C2F0E94651F32C081E00E947A1F5E
:1030C000123068F182E00E947A1F29C0DD2331F0BE
:1030D000112391F2802F0E949A1521C0112399F299
:1030E000093349F49FEFE7EEF3E09150E040F04000
:1030F000E1F700C00000802F0E945D1610C04C2F29
:103100004F70602FC7010E9443070E947D1C0FC0B3
:103110004C2F4F70602FC7010E94460708C088EFF0
:103120008C0D843020F40E945E140E947A04DD200D
:10313000C9F00E94D71E80FD15C0F70112820E94BF
:10314000D11E0E946C1DC7010E94BB180E94D11E97
:10315000DF91CF911F910F91FF90EF90DF90CF9073
:103160000C948D1DDF91CF911F910F91FF90EF90E7
:10317000DF90CF9008950F931F93CF93DF93EC01CF
:10318000988189812B813C81232B31F08F3F31F451
:1031900081E09F3F19F403C081E001C080E080FD21
:1031A00013C0CE010E948C04882371F0688179815C
:1031B0008A810E94AE1E8C010E94091E0E94FA1C88
:1031C000B801CE010E94AA16DF91CF911F910F91F5
:1031D00008950E94021F0E94121F0E94301F80E06B
:1031E00090E00E94751480E090E00C948B14809124
:1031F000190190911A010E94BC200C94E9180E94B8
:10320000F21E0C94F718E92FE295EF704E2F50E064
:10321000FA013297EE30F105B0F4EA59FF4F0C9401
:103220001429803F91F018F4883E68F40EC0843F62
:1032300051F40BC0883E48F0813F29F406C093FB4F
:10324000882780F9089580E0089581E008950E941C
:10325000A31E0E9403190895CF93DF9300D000D0DE
:103260001F92CDB7DEB70F900F900F900F900F9079
:10327000DF91CF910895CF93DF9300D000D000D09D
:10328000CDB7DEB726960FB6F894DEBF0FBECDBF22
:10329000DF91CF9108951F93CF93DF93C091BA012F
:1032A00016E08091BB01C81799F0D0E01C9FF00197
:1032B0001D9FF00D1124E454FE4F40815181628125
:1032C0007381848195810E943B192196C770E9CF53
:1032D000DF91CF911F9108954091EC015091ED0144
:1032E0006091EE017091EF018091F0019091F101F8
:1032F0000C943B19CF938091F10182958F7009F066
:103300005FC08091EE01882309F45AC08091BA0110
:10331000B091BB017091EC01A091ED014091EF01E2
:103320005091F00191E07F3F09F090E0692FC6E0F5
:103330008B1709F445C04115510521F0AF3F21F02D
:1033400020E003C021E001C0262F90E020FD35C021
:10335000C89FF001C99FF00D1124E454FE4F218154
:103360002A132BC02081271328C02281211125C0B8
:10337000238134812417350710F421503109241B8F
:10338000350B26393105C8F42091F1012F702061E9
:103390002093F10126E0289FF001299FF00D1124D0
:1033A000EF53FE4F80818F70806180838CEE91E0BF
:1033B0000E94BB18CF910C944B1901968770B8CF1F
:1033C000CF910895AF92BF92CF92DF92EF92FF928A
:1033D0000F931F93CF93DF93CDB7DEB761970FB6EF
:1033E000F894DEBF0FBECDBF8C0185E0F801DE0191
:1033F0001D9601900D928A95E1F7D8014C91119696
:103400005C9111971296EC903091EC016091ED0176
:103410008091EF019091F001009731F06F3F31F40E
:1034200021E03F3F19F403C021E001C020E0B22FAA
:10343000B170BB2E20FD60C1F801C380D480A09084
:10344000EE01AA2009F4EEC02091F101C816D906B8
:1034500028F0D601A81BB90BCD0104C0809590952A
:103460008C0D9D1DFF24F3948639910580F0F12C7D
:10347000207F09F09CC07C2DD98AC88A6E2D89894D
:103480000E942C198CEE91E00E94BB182DC1822F56
:10349000807F09F054C0561314C0431312C0FE2C91
:1034A000E1100FC02F7020612093F1010E946C1970
:1034B0008CEE91E00E94BB188091F101F8018583A8
:1034C0005CC1CD2831F05F3F31F481E04F3F19F40A
:1034D00003C081E001C080E080FD03C081E08E2553
:1034E00002C080E090E0F82FF170FF2E80FF1CC03A
:1034F0008091BA012091BB0136E0821709F41AC10C
:1035000090E0389FF001399FF00D1124E454FE4FF4
:103510006181561306C06081461303C06281E612C2
:1035200003C001968770E9CFFE2CEE2009F425C177
:103530008091F10181608093F101F12C1EC156133D
:1035400009C0431307C0E11005C08091F101F801E3
:103550008583A4C04D875E878D859E850E9427192F
:10356000882379F1EE2069F12091F101822F829573
:103570008F7090E0029774F08091EC019091ED01D2
:1035800098878F831986DB86CA862C87CE0107969B
:103590000E94BB1886E0F801ACEEB1E001900D92FC
:1035A0008A95E1F70E947A190E946C190DC056178E
:1035B00071F04D875E878D859E850E942719811148
:1035C0001AC0C8010E94BB18FF24F394D6C043134D
:1035D000F0CFE110EECF8091F101F8018583C801B1
:1035E0000E94BB1886E0ECEEF1E0DF011D928A95A7
:1035F000E9F7FA2CC2C0EE2021F32091F101822FCD
:1036000082958F7090E002972CF28091EC0190915E
:10361000ED019A8389831B82DD82CC822E83CE01C9
:103620000196B6CFC816D90628F0F601E81BF90BAB
:10363000CF0104C0809590958C0D9D1D8639910514
:1036400048F0F12C7C2DD98AC88A6E2D89890E9478
:103650002C194AC0FE2CEE2009F4B3CF561333C008
:10366000431331C02091F10120FD24C0822F8295A7
:103670008F70482F50E041155105E1F0D8011596A3
:103680002C9315974F30510549F08F5F982F9295E5
:10369000907F822F8F70892B15968C93C8010E9482
:1036A000BB1886E0F801ACEEB1E001900D928A956E
:1036B000E1F73DC086E0F801ACEEB1E001900D927B
:1036C0008A95E1F75AC04D875E878D859E850E9459
:1036D000271981115FCF8091F10181608093F10101
:1036E000C8010E94BB1849C0ECEEF1E086E0DF01A2
:1036F0001D928A95E9F71BC0EE2009F462CF4D8731
:103700005E878D859E850E942719F82E882309F4EF
:1037100058CF86E0F801ACEEB1E001900D928A95A9
:10372000E1F78CEE91E00E9494150E947A190E94B4
:103730006C1923C04D875E878D859E850E94A31ED0
:10374000292F22952F70223028F49F7039F0811193
:1037500005C00BC0243028F49F7049F4805E883087
:1037600020F0C8010E94BB18BF2CFB2C06C0D8015A
:1037700015969C91907F91F7F8CF8F2D61960FB69B
:10378000F894DEBF0FBECDBFDF91CF911F910F9197
:10379000FF90EF90DF90CF90BF90AF9008951F9370
:1037A000CF93DF93CDB7DEB72C970FB6F894DEBF7B
:1037B0000FBECDBF4F83588769877A878B879C87D9
:1037C000CE0107960E94E2198823D1F09F81888557
:1037D0002A853B85232B31F08F3F31F481E09F3FD9
:1037E00019F403C081E001C080E080FD47C04F8133
:1037F000588569857A858B859C850E943B193EC0DA
:1038000086E0FE013796DE01119601900D928A95B1
:10381000E1F7FF81E8856A857B856115710531F0E7
:10382000EF3F31F481E0FF3F19F403C081E001C0B4
:1038300080E080FD23C02091BB0130E0C9010196EA
:10384000877099274091BA0150E084179507F1F1EC
:10385000F983EA837D836C8396E0929FD001939FE6
:10386000B00D1124A454BE4FFE01319601900D926B
:103870009A95E1F78093BB010E944B1916E0809165
:10388000BA019091BB01891771F1189FC0011124F1
:1038900084549E4F0E94E219882329F1E091BA01D5
:1038A0001E9FF0011124E454FE4F4081518162813A
:1038B0007381848195810E943B198091BA0190E0C7
:1038C0000196877099278093BA01D9CF0E94FF187B
:1038D0001092BB011092BA01ECEEF1E086E0DF013C
:1038E0001D928A95E9F72C960FB6F894DEBF0FBEAD
:1038F000CDBFDF91CF911F910895EF92FF920F936B
:103900001F93CF93DF938C01892B09F46CC0F12CAA
:10391000EE24E394E8012196F8018491843740F481
:10392000843008F051C0813081F0823019F15BC0E1
:10393000853709F444C0A8F19CE7980F903708F048
:1039400052C08F770E945D1641C00E5F1F4FFE016F
:10395000849190E2980F983050F48770FE2D01C04A
:10396000FF0F8A95EAF78F2F0E94051F14C00E944F
:103970009A152DC00E5F1F4FFE01849190E2980FA3
:10398000983060F48770FE2D01C0FF0F8A95EAF72A
:103990008F2F0E940B1F0E94301F19C00E945D16BE
:1039A00016C00E5F1F4FFE01C491CC2381F08FE93A
:1039B0009FE00197F1F700C00000C150F6CF0E5F05
:1039C0001F4FFE01F49003C00E949A158E018F2DA7
:1039D000882309F49FCFEFE9FFE03197F1F700C0AA
:1039E00000008150F5CFDF91CF911F910F91FF9093
:1039F000EF900895089508950C94FB1C0C94FC1C02
:103A00000E94FE1C60932D0270932E0280932F0261
:103A1000909330020C94E9180C94001D0F931F939F
:103A200000912D0210912E0220912F023091300230
:103A3000602B712B822B932B1F910F910C94001DE7
:103A40000F931F9300912D0210912E0220912F02AF
:103A50003091300260237123822393231F910F91B1
:103A60000C94001D0F931F9300912D0210912E02B4
:103A700020912F02309130026027712782279327EF
:103A80001F910F910C94001D0C94FB1C0E94441D6F
:103A90006093290270932A0280932B0290932C0248
:103AA0000C94E91860E070E0CB010C94461D0F9374
:103AB0001F9341E050E060E070E08A019B0104C088
:103AC000000F111F221F331F8A95D2F7C901B801B9
:103AD0001F910F910C94461D0F931F9341E050E0EE
:103AE00060E070E004C0440F551F661F771F8A9581
:103AF000D2F78091290290912A02A0912B02B091D5
:103B00002C028A019B01082B192B2A2B3B2BC90164
:103B1000B8011F910F910C94461D0F931F9341E024
:103B200050E060E070E004C0440F551F661F771F2F
:103B30008A95D2F7409550956095709580912902AD
:103B400090912A02A0912B02B0912C028A019B0134
:103B5000082319232A233B23C901B8011F910F9180
:103B60000C94461D0F931F9341E050E060E070E01D
:103B700004C0440F551F661F771F8A95D2F78091A6
:103B8000290290912A02A0912B02B0912C028A0165
:103B90009B01082719272A273B27C901B8011F9134
:103BA0000F910C94461D0F931F93009129021091C1
:103BB0002A0220912B0230912C02602B712B822B38
:103BC000932B1F910F910C94461D0F931F930091FF
:103BD000290210912A0220912B0230912C0260239D
:103BE0007123822393231F910F910C94461D0F93F1
:103BF0001F930091290210912A0220912B023091EB
:103C00002C0260277127822793271F910F910C9414
:103C1000461D089527E0929F800D1124E82FE69518
:103C2000E695E695877051E001C0550F8A95EAF751
:103C300085E0E89FF0011124EE50FE4F20E030E0D7
:103C400070E04081CB01022E02C0969587950A94C0
:103C5000E2F78170819584278523842781932F5FE4
:103C60003F4F2530310569F7089527E0929F800D79
:103C70001124682F669566956695982F977085E054
:103C8000689FB001112440E050E080E0FB01E40FA8
:103C9000F51FEE50FE4F208130E0092E02C0369510
:103CA00027950A94E2F721703327042E01C0220FD2
:103CB0000A94EAF7822B4F5F5F4F4530510531F789
:103CC0000895BF92CF92DF92EF92FF920F931F93CE
:103CD000CF93DF938C01C0902902D0902A02E0900C
:103CE0002B02F0902C0280912D0290912E02A09137
:103CF0002F02B0913002C82AD92AEA2AFB2ACFE142
:103D0000D0E0D701C6010C2E04C0B695A7959795B3
:103D100087950A94D2F780FD04C0219790F7B12CC3
:103D200007C0BC2EB8018C2F0E9462070197A9F32F
:103D30008B2DDF91CF911F910F91FF90EF90DF902E
:103D4000CF90BF900895CF93DF93EC010E94611E46
:103D5000BE010E946207DF91CF9108951F93CF9318
:103D6000DF93EB019091B901992321F0CB010E94DF
:103D7000A31E13C0882349F0CB010E94611E182F97
:103D8000682FCE010E940A1E04C0CB010E94351E7E
:103D9000182FBE01812F0E946207DF91CF911F91E2
:103DA0000895809131028595859585950895809136
:103DB00031028770089590913102977081E009F483
:103DC00080E0089580913D02089590913D02892BF5
:103DD00080933D020895809590913D0289238093C0
:103DE0003D02089510923D02089590913C02892B66
:103DF00080933C020895809590913C0289238093A2
:103E00003C02089510923C02089590913B02892B48
:103E100080933B020895809590913B028923809383
:103E20003B02089510923B0208958091320208955A
:103E300008950C94181F0C94191F90913202981732
:103E400021F0809332020C941B1F0895809132025E
:103E5000882329F01092320280E00C941B1F0895F1
:103E6000E0911901F0911A0180913D028083E09167
:103E70001901F0911A01908180913C02892B808375
:103E8000E0911901F0911A01908180913B02892BF8
:103E9000808380913202882381F0E0911901F091B2
:103EA0001A019081892B80838091190190911A01C8
:103EB0000E94852081110E94261F809119019091F6
:103EC0001A010C946A140C94181F98E0899F9001B1
:103ED0001124262B209331020E946C1D8091310207
:103EE0008595859585950C94631F1092310280E02D
:103EF0000C94631F209131028095822380933102BC
:103F0000982F977079F430E0482F082E000C550B4D
:103F10002417350739F08595859585950E948D1D67
:103F20000C94751F0895CF92DF92EF92FF926C016F
:103F3000EE24FF24C114D104E104F10421F0C701EF
:103F4000B60120E101C020E0C72ED82EE92EFF24C3
:103F5000C114D104E104F10419F0285FC701B601CE
:103F60006B017C0154E0F694E794D794C7945A957A
:103F7000D1F7C114D104E104F10419F02C5FC70199
:103F8000B6016B017C0142E0F694E794D794C794A4
:103F90004A95D1F7C114D104E104F10419F02E5F60
:103FA000C701B601DC01CB01B695A795979587951A
:103FB000892B8A2B8B2B09F02F5F822FFF90EF909C
:103FC000DF90CF90089580E090E00E94352921E0B5
:103FD0008C3E9E4F09F020E0822F089582E090E011
:103FE0000C94272983E090E00C942729CF9384E058
:103FF00090E00E942729C82F81E290E00E942729A3
:104000002C2F30E0A901582BCA01CF910895CF93EE
:10401000C92F682F84E090E00E943B296C2F81E239
:1040200090E0CF910C943B29AB01BC018FE090E074
:104030000C944D29AB01BC0183E190E00C944D2917
:1040400060E070E0CB010C941A2060E070E0CB01DE
:104050000E9414200C9420206CEE7EEF80E090E013
:104060000E94592960E082E090E00E943B2960E0D4
:1040700083E090E00E943B2910922D0210922E02C4
:1040800010922F021092300260E084E090E00E94D3
:104090003B2960E081E290E00E943B2960E085E0FE
:1040A00090E00E943B2960E086E090E00E943B297E
:1040B0006FEF87E090E00E943B2940E050E0BA01BA
:1040C00088E090E00E944D2960E08DE090E00E9441
:1040D0003B2940E050E0BA0188E190E00E944D2980
:1040E00060E087E190E00E943B2940E050E0BA01A7
:1040F0008CE190E00E944D2960E080E290E00E9417
:104100003B290C9425200C942C20FC01329697E03E
:1041100080E0915029F021912223D9F38F5FF9CFCC
:1041200008959C01FC0132969FEF80E04191461773
:1041300089F09F3F19F4411101C0982F8F5F86309D
:10414000A9F79F3F39F0F901E90FF11D97FDFA95A5
:104150006283089508959C012A5F3F4FFC014281CC
:10416000461301C01282019682179307B9F708958A
:104170000C9491200C94AB20029626E0FC01119245
:104180002A95E9F7089508950C94C3200C94C32050
:10419000CF930E94C6200E94F30A0E94C420C0E070
:1041A0008C2F0E94FC09811104C0CF5FCC30C1F775
:1041B00001C081E0CF9108950C94C3200C94DC20C1
:1041C0000E94DE208091C702843009F439C0109229
:1041D0003F0220E488E190E00FB6F894A895809320
:1041E00060000FBE2093600080E00E947A040E946D
:1041F0000F118091400281110AC081E0809340023A
:1042000080914F028170809341020E943D100E9474
:10421000DE2083B7817F846083BF83B7816083BFE3
:104220007894889583B78E7F83BF0FB6F894A8954E
:1042300080916000886180936000109260000FBEE2
:1042400008950C94C3200E94FF180E945E140E94DF
:104250007A04109240028091410281110E9407115C
:104260000E944F100C9421211F920F920FB60F92B3
:1042700011248F939F93AF93BF9380913F0281113D
:1042800013C08091BD029091BE02A091BF02B09177
:10429000C0024196A11DB11D8093BD029093BE0244
:1042A000A093BF02B093C002BF91AF919F918F9135
:1042B0000F900FBE0F901F90189582E084BD93E081
:1042C00095BD9AEF97BD80936E0008952FB7F8942F
:1042D0008091BD029091BE02A091BF02B091C00238
:1042E0002FBF0895CF92DF92EF92FF920F931F930B
:1042F0002FB7F8944091BD025091BE026091BF0269
:104300007091C0022FBF6A017B01EE24FF248C0153
:1043100020E030E0C016D106E206F30610F441506A
:1043200051099A01281B390BC9011F910F91FF9068
:10433000EF90DF90CF90089578941F920F920FB670
:104340000F9211248F939F93AF93BF938091BD02DF
:104350009091BE02A091BF02B091C0020196A11D32
:10436000B11D8093BD029093BE02A093BF02B09393
:10437000C002BF91AF919F918F910F900FBE0F9090
:104380001F90189581E08093E00080E28093D80030
:104390001092C9008FE19EE40197F1F700C0000080
:1043A00087E090EBDC018093D0029093D102A09340
:1043B000D202B093D3029CE088E10FB6F894A8959E
:1043C000809360000FBE90936000FFCF0E94E31FB8
:1043D000811102C00E9483200E94EE1F80933E0242
:1043E0000E94F61F9093C2028093C1020E94F21FA6
:1043F000682F70E080E090E00C940C1D80914A02E0
:10440000089508950F931F93CF93DF9300D01F92C9
:10441000CDB7DEB78C010E943124823011F0843098
:1044200021F584E089831B830A8382E08093E9007D
:104430008FEF9091E800815095FD06C095ED9A951B
:10444000F1F700008111F5CF8091E80085FF0DC0E4
:1044500040E050E063E070E0CE0101960E944E24FF
:104460008091E8008E778093E8000F900F900F9076
:10447000DF91CF911F910F910895CF93DF9300D0DB
:104480001F92CDB7DEB72091C702243031F523E06B
:104490002983805891099B838A8382E08093E90075
:1044A0008FEF9091E800815095FD06C095ED9A95AB
:1044B000F1F700008111F5CF8091E80085FF0DC074
:1044C00040E050E063E070E0CE0101960E944E248F
:1044D0008091E8008E778093E8000F900F900F9006
:1044E000DF91CF910895CF93DF93EC010E943124A7
:1044F000823011F0843039F581E08093E9008FEF4C
:104500009091E800815095FD06C095ED9A95F1F7E0
:1045100000008111F5CF8091E80085FF14C040E0D4
:1045200050E068E070E0CE010E944E248091E800E7
:104530008E778093E80088E0FE01A2E4B2E001906B
:104540000D928A95E1F7DF91CF9108958091C6028F
:10455000811109C00E94DF250E943C268091E20063
:1045600084608093E20008951092C6020895089531
:1045700008950C94232142E061EC81E00E945825CB
:1045800042E261EC82E00C9458258091C9028330AC
:1045900009F460C030F4813071F0823009F499C0C0
:1045A00008958A3009F485C08B3009F46BC08930D6
:1045B00009F0A7C020C08091C802813A09F0A1C0CB
:1045C0008091E800877F8093E8008091CC029091F1
:1045D000CD02892B21F468E082E492E003C060E020
:1045E00080E090E070E00E9499248091E8008B7751
:1045F0008093E80008958091C802813209F081C05B
:104600008091CC029091CD02029708F07AC08091FF
:10461000E800877F8093E8008091E80082FD05C074
:104620008091C7028111F8CF6CC02091F300809176
:10463000F20090E0922B029729F48091F1008B7F99
:10464000813021F48091F10080934A028091E8004A
:104650008B7753C08091C802813A09F052C0809193
:10466000CC029091CD02892B09F04BC08091E800DB
:10467000877F8093E8008091E80080FFFCCF8091E5
:10468000250136C08091C8028132D9F58091CC02D3
:104690009091CD02892BA9F58091E800877F8093C6
:1046A000E8000E948D258091CA02809325010C9418
:1046B000FF188091C802813221F58091E800877F40
:1046C0008093E8000E948D258091CB0280934B025D
:1046D00008958091C802813AA1F48091E800877F13
:1046E0008093E8008091E80080FFFCCF80914B022E
:1046F0008093F1008091E8008E778093E8000C941D
:104700008D25089584B7877F84BF0FB6F894A89548
:1047100080916000886180936000109260000FBEFD
:1047200080E880936100109261000E94AF140E94A3
:10473000DF250E943C268091E20084608093E200A5
:1047400078940E94D1280E94B5148BE191E00E94D8
:1047500059148091C702853069F40E94E02080914D
:10476000C5028823B1F30E94C820882391F30E94D8
:104770003824EFCF0E94BF140E941211EACF0C948C
:10478000C123292F332723303105C9F060F42130AC
:10479000310581F02230310509F04AC08BE390E009
:1047A0002DE235E049C02132310511F122323105C7
:1047B00079F13EC082E190E028E635E03DC09927DE
:1047C0008130910561F040F08230910559F00397F6
:1047D00079F5EBE0F5E008C0E9E2F5E005C0EBE1D2
:1047E000F5E002C0E1E1F5E0849190E09F0124C092
:1047F0006115710541F061307105D1F489E090E0F7
:1048000028E535E019C089E090E02FE335E014C0D9
:104810006115710541F06130710551F486E390E056
:104820002AE735E009C080E490E020EB35E004C0E1
:1048300080E090E020E030E0FA01318320830895A9
:104840000895CF93C82F0E942024C0934C02CF918B
:1048500008958091C702843011F081E0089582E0CC
:10486000089580914C02811102C00C94292408956E
:1048700080E189BD82E189BD09B400FEFDCF809150
:10488000D8008F7D8093D8008091E0008260809373
:10489000E0008091E00081FDFCCF0895CF92DF928F
:1048A000EF92FF920F931F93CF93DF93EC018B0155
:1048B0007A010E94AC25811133C0E114F10439F072
:1048C000F70180819181081B190BC80FD91FC12CDA
:1048D000D12C0115110519F18091E80085FD16C054
:1048E0008091E8008E778093E800E114F10449F0AC
:1048F000F70180819181C80ED91ED182C08285E0E6
:104900000FC00E94AC25882321F30AC089918093AF
:10491000F10001501109FFEFCF1ADF0ADACF80E072
:10492000DF91CF911F910F91FF90EF90DF90CF908B
:1049300008952091CE023091CF022617370748F014
:104940006115710539F42091E8002E772093E80075
:1049500001C0B901FC0120E06115710579F1809178
:10496000C7028823F1F18530F1F18091E80083FDE1
:104970003CC08091E80082FD2EC08091E80080FF5D
:10498000EBCF2091F3008091F20090E0922B611523
:10499000710551F08830910538F421912093F10090
:1049A000615071090196F3CF21E0089709F020E0EA
:1049B0008091E8008E778093E800CECF2111CFCF91
:1049C0000AC08091C702882361F0853061F0809130
:1049D000E80083FD0AC08091E80082FFF2CF80E00A
:1049E000089582E0089583E0089581E0089520917C
:1049F000CE023091CF022617370748F061157105B6
:104A000039F42091E8002E772093E80001C0B90125
:104A1000FC0120E06115710591F18091C7028823A6
:104A200009F440C0853009F43FC08091E80083FD5F
:104A30003DC08091E80082FD2FC08091E80080FF9A
:104A4000E9CF2091F3008091F20090E0922B611564
:104A5000710559F08830910540F424912093F100BC
:104A60003196615071090196F2CF21E0089709F063
:104A700020E08091E8008E778093E800CBCF211171
:104A8000CCCF0AC08091C702882361F0853061F0E5
:104A90008091E80083FD0AC08091E80082FFF2CF98
:104AA00080E0089582E0089583E0089581E008950C
:104AB000982F973068F59093E900981739F0709126
:104AC000EC002091ED005091F00003C0242F762FD0
:104AD00050E021FD02C09F5FECCF3091EB003E7FA4
:104AE0003093EB003091ED003D7F3093ED0030913D
:104AF000EB0031603093EB007093EC002093ED00FD
:104B00005093F0002091EE0027FDE5CF80E008955E
:104B10008F708093E90081E008958091C80287FF3B
:104B200011C08091E80082FD05C08091C70281110B
:104B3000F8CF11C08091E8008B770BC08091C7023D
:104B4000882349F08091E80080FFF8CF8091E80049
:104B50008E778093E80008952091E4003091E5007D
:104B600095E64091EC00842F817040FF23C0809136
:104B7000E80080FD1DC08091C702882399F0853030
:104B800099F08091EB0085FD11C04091E4005091B7
:104B9000E5002417350729F3915011F09A01E1CF70
:104BA00084E0089582E0089583E0089581E0089507
:104BB00080E008954091E80042FFDDCF08950E9413
:104BC0004D260E945526E0EEF0E0808181608083D2
:104BD000E8EDF0E080818F77808319BCA7EDB0E02D
:104BE0008C918E7F8C9380818F7E80831092C60201
:104BF00008950F931F93CF93DF930E944D260E9439
:104C00005526C8EDD0E088818F77888388818068B9
:104C1000888388818F7D888319BC1092C702109287
:104C2000C3021092C5021092C40200EE10E0F80117
:104C300080818B7F808388818160888342E060E00F
:104C400080E00E945825E1EEF0E080818E7F808335
:104C5000E2EEF0E0808181608083808188608083E3
:104C6000F80180818E7F8083888180618883DF91D5
:104C7000CF911F910F910895E8EDF0E080818F7E34
:104C80008083E7EDF0E080818160808384E082BFF3
:104C900081E08093C6020C94F925E8EDF0E0808174
:104CA0008E7F80831092E20008951092DA001092B5
:104CB000E10008951F920F920FB60F9211242F93C7
:104CC0003F934F935F936F937F938F939F93AF9394
:104CD000BF93EF93FF938091E10082FF0BC080911F
:104CE000E20082FF07C08091E1008B7F8093E100AA
:104CF0000E94D0288091DA0080FF1FC08091D800E8
:104D000080FF1BC08091DA008E7F8093DA00809153
:104D1000D90080FF0DC080E189BD82E189BD09B461
:104D200000FEFDCF81E08093C7020E94A62205C04D
:104D300019BC1092C7020E94B4228091E10080FF4A
:104D400019C08091E20080FF15C08091E2008E7F43
:104D50008093E2008091E20080618093E200809184
:104D6000D80080628093D80019BC85E08093C70288
:104D70000E94B8228091E10084FF30C08091E2005F
:104D800084FF2CC080E189BD82E189BD09B400FEA9
:104D9000FDCF8091D8008F7D8093D8008091E10075
:104DA0008F7E8093E1008091E2008F7E8093E2000D
:104DB0008091E20081608093E2008091C3028823A9
:104DC00011F084E007C08091E30087FD02C081E01C
:104DD00001C083E08093C7020E94B9228091E10064
:104DE00083FF29C08091E20083FF25C08091E1000C
:104DF000877F8093E10082E08093C7021092C30214
:104E00008091E1008E7F8093E1008091E2008E7FAF
:104E10008093E2008091E20080618093E20042E0B2
:104E200060E080E00E9458258091F00088608093C7
:104E3000F0000E94B722FF91EF91BF91AF919F9137
:104E40008F917F916F915F914F913F912F910F9033
:104E50000FBE0F901F9018951F920F920FB60F92D2
:104E600011242F933F934F935F936F937F938F936F
:104E70009F93AF93BF93CF93DF93EF93FF93C09133
:104E8000E900CF708091EC00D82FD17080FDD0E880
:104E90001092E9008091F000877F8093F000789471
:104EA0000E9470271092E9008091F0008860809342
:104EB000F000CD2BCF70C093E900FF91EF91DF910F
:104EC000CF91BF91AF919F918F917F916F915F91A2
:104ED0004F913F912F910F900FBE0F901F901895FB
:104EE0001F93CF93DF93CDB7DEB7AA970FB6F89491
:104EF000DEBF0FBECDBFE8ECF2E08091F100819300
:104F000022E0E03DF207C9F70E94C5228091E80047
:104F100083FF2EC18091C8029091C902492F50E0B1
:104F20004A30510508F024C1FA01EC58FF4F0C94A7
:104F30001429803821F0823809F01AC108C0809104
:104F4000C4029091C502992389F082600FC08091BC
:104F5000CC028F70873008F00BC18093E9008091FC
:104F6000EB0085FB882780F91092E9009091E8001A
:104F7000977F9093E8008093F1001092F100D1C0E8
:104F8000282F2D7F09F0F4C0882319F0823061F0BA
:104F9000EFC08091CA02813009F0EAC0933009F075
:104FA00080E08093C5022EC08091CA0281112AC080
:104FB0008091CC028F702FEF280F263008F0D8C0D8
:104FC0008093E9002091EB0020FF1CC0933021F476
:104FD0008091EB00806214C09091EB0090619093FF
:104FE000EB0021E030E0A90102C0440F551F8A9573
:104FF000E2F74093EA001092EA008091EB008860AB
:105000008093EB001092E9008091E800877F809305
:10501000E8000E948D25ACC08111AAC01091CA027F
:105020001F778091E3008078812B8093E30080914B
:10503000E800877F8093E8000E948D258091E8003A
:1050400080FFFCCF8091E30080688093E300111122
:1050500002C082E001C083E08093C70289C080580B
:10506000823008F085C08091CA029091CB028C3DBD
:1050700053E0950779F583E08A838AE289834FB705
:10508000F894DE01139620E03EE051E2E32FF0E0D9
:1050900050935700E49120FF03C0E295EF703F5F0B
:1050A000EF708E2F90E0EA3010F0C79601C0C096E6
:1050B0008D939D932F5F243149F74FBF8091E80076
:1050C000877F8093E8006AE270E0CE0101960E943B
:1050D000992416C06091CC027091CD02AE014F5F51
:1050E0005F4F0E94BF23BC01892B09F441C09091FE
:1050F000E800977F9093E80089819A810E94F724C5
:105100008091E8008B778093E80032C0803881F589
:105110008091E800877F8093E8008091C3028093AC
:10512000F1008091E8008E7772CF811121C08091CB
:10513000CA029091CB0299270297D4F48091E8009B
:10514000877F8093E8008091CA028093C3020E9407
:105150008D258091C302811106C08091E30087FDF7
:1051600002C081E001C084E08093C7020E94BB229C
:105170008091E80083FF0AC08091E800877F8093D8
:10518000E8008091EB0080628093EB00AA960FB656
:10519000F894DEBF0FBECDBFDF91CF911F91089570
:1051A0000895CF938091C7028823A1F0C091E900B0
:1051B000CF709091EC00892F817090FD80E8C82B12
:1051C0001092E9008091E80083FD0E947027CF7063
:1051D000C093E900CF910895AA1BBB1B51E107C002
:1051E000AA1FBB1FA617B70710F0A61BB70B881F77
:1051F000991F5A95A9F780959095BC01CD01089506
:1052000097FB072E16F4009407D077FD09D00E9473
:10521000EC2807FC05D03EF4909581959F4F0895AA
:10522000709561957F4F0895EE0FFF1F0590F491E3
:10523000E02D0994FC014150504030F001900616D9
:10524000D1F73197CF010895882799270895F999C3
:10525000FECF92BD81BDF89A992780B50895A6E149
:10526000B0E044E050E00C946129A8E1B0E042E0F5
:1052700050E00C946129262FF999FECF92BD81BD93
:10528000F89A019700B4021639F01FBA20BD0FB684
:10529000F894FA9AF99A0FBE08950396272F0E9460
:1052A0003C290E943B29252F0E943C29242F0C9445
:1052B0003C290196272F0E943C290C943B29DC01B4
:1052C000CB01FC01F999FECF06C0F2BDE1BDF89A11
:1052D000319600B40D9241505040B8F70895F894BB
:0252E000FFCFFE
:1052E2000188010089010789010102232323011991
:1052F2001A1B1C1D1E1F2021223302FE21732201B4
:10530200223D22022201F0F1F4F5F6F76766363506
:105312003497C600000000000000010202020206EB
:1053220006060909090909090F0F0F0F0F0F1515B5
:10533200151819191919191919191919232400FFFE
:0E5342000100010000FFFF0000010001FF005C
:00000001FF
