:100000000C9400030C9442120C9447030C94470385
:100010000C9447030C9447030C9447030C94470338
:100020000C9447030C9447030C94DC290C94AE2ADF
:100030000C9464200C9447030C9447030C944703DE
:100040000C9447030C9447030C9447030C94470308
:100050000C9447030C94CC200C9447030C94470356
:100060000C9447030C9447030C9447030C944703E8
:100070000C9447030C9447030C9447030C944703D8
:100080000C9447030C9447030C9447030C944703C8
:100090000C9447030C9447030C9447030C944703B8
:1000A0000C9447030C9447030C944703161616163A
:1000B000481648169516B3160B180B18F5168A171E
:1000C0009B179B17FB170B180B1804189118911806
:1000D000A318A3189A18A318A318A3189118911875
:1000E0009F18A318A3189F181B2B422B3A2C422BA6
:1000F0003A2C8E2BB12B3A2C082C172C29001E00E1
:100100001F002000210022000000350014001A000A
:1001100008001500170000002B000400160007005F
:1001200009000A000000E1001D001B000600190084
:1001300005000000E000E300E200025101512C0044
:1001400028002A00270026002500240023000000A4
:100150004C00130012000C0018001C0000003400BA
:1001600033000F000E000D000B0000002872380055
:10017000370036001000110000004F0052005100FF
:10018000500001512C412A003A003B003C003D0048
:100190003E003F000000010001004B002F02300232
:1001A00001000000010001004E00260227022E027D
:1001B00000000100010001002F0030002E000000AF
:1001C00001000100010001000100010001004500E3
:1001D00044004300420041004000000031000100A3
:1001E0004D0052004A0001000000310201004F00A2
:1001F000510050002D00000001004B003702360274
:100200004E002D020000010001000100010001006C
:10021000010001003A003B003C003D003E003F0071
:1002200000000100C25CC35CC55CC75CC95C000027
:1002300001000100CD5CC65CC85CCA5C0000010026
:1002400001000100010001000100000001000100A7
:1002500001000100010001000100450044004300CD
:100260004200410040000000005C46000100A9007F
:10027000010001000000490001000100AA00010086
:1002800001000000010001000100AE0001000100BA
:100290000000010001000100010001000100010057
:1002A00000047F3F1F643214643214783C1E1E1415
:1002B0000A052223252628292A2C2D2F30323335D2
:1002C00036383A3B3D3E4042434547494A4C4E5002
:1002D00051535557595A5C5E6062646668696B6D2C
:1002E0006F71737577797B7D7F81838587898A8C30
:1002F0008E90929496989A9C9E9FA1A3A5A7A8AA37
:10030000ACAEAFB1B3B4B6B8B9BBBCBEBFC1C2C36B
:10031000C5C6C7C9CACBCCCDCED0D1D2D2D3D4D505
:10032000D6D7D7D8D9D9DADADBDBDBDCDCDCDCDC2E
:10033000DDDDDDDDDCDCDCDCDCDBDBDBDADAD9D906
:10034000D8D7D7D6D5D4D3D2D2D1D0CECDCCCBCA94
:10035000C9C7C6C5C3C2C1BFBEBCBBB9B8B6B4B3BA
:10036000B1AFAEACAAA8A7A5A3A19F9E9C9A989650
:100370009492908E8C8A89878583817F7D7B797723
:100380007573716F6D6B6968666462605E5C5A5903
:1003900057555351504E4C4A4947454342403E3DC4
:1003A0003B3A3836353332302F2D2C2A2928262552
:1003B0002322FFAA7F55400000000000000000003B
:1003C0000001010101010101010102020202020218
:1003D00002020303030303030304040404040505E6
:1003E00005050506060606060707070708080808A4
:1003F0000909090A0A0A0B0B0B0C0C0C0D0D0D0E4A
:100400000E0E0F0F101010111112121313141415D9
:100410001516161717181819191A1A1B1C1C1D1D4A
:100420001E1F1F202121222323242525262728289B
:10043000292A2B2C2C2D2E2F3031313233343536C6
:100440003738393A3B3C3D3E3F40414243444546C4
:100450004748494B4C4D4E4F50525354555758599D
:100460005A5C5D5E606163646567686A6B6C6E6F41
:100470007172747677797A7C7D7F818284868789B0
:100480008B8D8E9092949597999B9D9FA1A2A4A6E7
:10049000A8AAACAEB0B2B4B6B9BBBDBFC1C3C5C8E3
:1004A000CACCCED0D3D5D7DADCDEE1E3E6E8EAED9C
:1004B000EFF2F4F7F9FCFF040330000000180350DA
:1004C0000072006F006A0065006300740020005A2B
:1004D0000065006E00000010034C00650067006FAF
:1004E000006E007500740000000403090409023B5B
:1004F00000020100A0FA0904000001030101000943
:1005000021110100012240000705810308000A09AA
:1005100004010001030000000921110100012285EE
:10052000000705820320000A1201100100000008E4
:10053000EDFE603001000102030105010902A10185
:1005400085020901A10005091901290515002501E8
:100550009505750181029501750381010501093039
:1005600009311581257F95027508810609381581A5
:10057000257F950175088106050C0A38021581252D
:100580007F950175088106C0C005010980A101851C
:10059000031A81002A8300160100260300950175C5
:1005A000108100C0050C0901A10185041A01002A6F
:1005B0009C02160100269C02950175108100C00561
:1005C000010906A101050719E029E7150025019594
:1005D0000875018102950175088101050719002937
:1005E000FF150026FF009506750881000508190112
:1005F0002905950575019102950175039101C000CA
:1006000011241FBECFEFDAE0DEBFCDBF04B603FE7C
:1006100027C080918D0290918E02A0918F02B0919F
:1006200090028730904BA740B04BD1F410928D02CE
:1006300010928E0210928F021092900214BE84B714
:10064000877F84BF0FB6F894A89580916000886179
:1006500080936000109260000FBEE0E0F8E309951F
:1006600011E0A0E0B1E0E6EEF9E502C005900D92E0
:10067000AC36B107D9F722E0ACE6B1E001C01D927B
:10068000AD38B207E1F70E9404270C94F12C0C94CA
:1006900000000C941B0981E0089581E008950C94FA
:1006A0004D031F93CF93DF9300D000D01F92CDB79F
:1006B000DEB749835A836B832091AB0189819A818C
:1006C000211112C0662349F00E94E11D182F682FE6
:1006D00089819A810E948A1D03C00E94B51D182F2E
:1006E00069817A81812F04C00E94E11D69817A812C
:1006F0000F900F900F900F900F90DF91CF911F915F
:100700000C946A06FC01408151816281738184816D
:100710000C9451030E94131F811102C00E94B31F49
:100720000C9449030C94190908950C9494030C94A7
:10073000950308950E947F180E9499032FEF84E388
:100740009CE0215080409040E1F700C0000087E726
:1007500097E790930108809300080C94F2200F9380
:100760001F93CF93DF938C010E948203EC01B801A9
:100770000E944F03882309F4A3C2B801CE010E944E
:100780005811882309F49CC2CB3CFCE5DF0741F4F7
:10079000F8018281882309F493C20E94C90B90C298
:1007A000CC3C8CE5D80708F0C6C1C33C9CE5D90712
:1007B00061F4F8018281882309F482C20E94621EDA
:1007C0008272F1F00E94BA0F7BC2C43CECE5DE07F6
:1007D000D0F0F8018281C73CFCE5DF0709F486C14F
:1007E00008F093C1C53CECE5DE0709F484C108F0CC
:1007F00087C1882309F464C20E94621E827211F3C9
:100800000E94AD0F5DC2C631FCE5DF0708F038C1BC
:10081000C2308CE5D80708F40FC1F8018281882323
:1008200009F411C10E94131F811102C00E94B31F5D
:100830000E94261F90937F0280937E02CF30FCE5BA
:10084000DF0709F4CDC008F042C0C8309CE5D907E5
:1008500009F4A8C0F0F4C430FCE5DF0709F490C047
:1008600068F4C2309CE5D90709F486C0C330DC4582
:1008700009F0D9C080917E028260D3C0C630FCE509
:10088000DF0709F487C008F089C080917E02886084
:10089000C8C0CB309CE5D90709F493C068F4C930CF
:1008A000FCE5DF0709F482C0CA30DC4509F0BBC0B3
:1008B00080917E0288607EC0CD309CE5D90709F426
:1008C00084C008F085C080917E028D7FAAC0C73F9A
:1008D000FCE5DF0709F457C050F5C2319CE5D907A4
:1008E00009F486C068F4C031FCE5DF0709F47CC078
:1008F000C131DC4509F097C080917E028F7B91C0A9
:10090000C4319CE5D90709F483C008F475C0C5312A
:10091000DC4509F088C080917E0282FB222720F905
:1009200091E0922790FB82F990FB83F97AC0CA3F4D
:100930008CE5D80709F450C058F4C83FECE5DE0751
:1009400029F1C93FDC4509F06EC080917F025CC08F
:10095000CC3F8CE5D80709F454C070F1CD3FDC459D
:1009600009F061C080917F02982F909591708E7FE1
:10097000892B90FB81F949C080917E02816051C032
:1009800080917E0217C080917F0219C080917F0202
:1009900082603BC080917E02806143C080917E0274
:1009A00080623FC080917E0280643BC080917E0265
:1009B000806837C0846035C080917F02826081602A
:1009C00024C080917E028E7F2CC080917E0217C051
:1009D00080917E02877F25C080917F028D7F15C028
:1009E00080917E028F7E1DC080917E028F7D19C016
:1009F00080917E028F7715C080917E02877F8B7FEA
:100A000010C080917F028D7F8E7F80937F020BC00C
:100A100080917E0287FB222720F991E0922790FBAC
:100A200087F980937E0280917E0290917F020E94DE
:100A3000371F0E947F1844C1C1159CE5D90751F0AA
:100A4000C130DC4579F0C801DF91CF911F910F9142
:100A50000C944B03F8018281882309F431C10E9470
:100A60009A032EC1F8018281882309F429C180915B
:100A70002602982F909590FB80F98093260220C142
:100A8000C631FCE5DF0739F50E94621E982FF80198
:100A900082812091190130911A01882379F09A7A84
:100AA00081E009F480E080936C01911102C069E259
:100AB00001C065E3C9010E94E81F0AC080916C0172
:100AC000811102C069E201C065E3C9010E94EA1F09
:100AD0000E94B01EF5C0C23CDC4509F0B4CFF8015D
:100AE00082818111EDC00E94C80FEAC08111E8C067
:100AF0000E94600DE5C08111E3C00E94440DE0C07A
:100B00008111DEC00E94510DDBC0C93C9CE5D907B4
:100B100029F48111D5C00E947E0DD2C0CA3CDC45AB
:100B200028F48111CDC00E946F0DCAC08111C8C0C8
:100B30000E948D0DC5C0C33DFCE5DF0749F4F801F7
:100B40008281882309F4BCC088E10E94BD0FB8C02F
:100B5000C43D8CE5D80708F069C0F8018281CF3C1C
:100B6000FCE5DF0771F4882309F4AAC00E94C10BD9
:100B7000863028F00E94C10B883008F441CE86E010
:100B8000E4CFC03D9CE5D90700F5CD3CECE5DE07A0
:100B900029F4882309F494C081E0D7CFCE3CDC450A
:100BA00030F4882309F48CC00E94DA0B89C08823B2
:100BB00009F486C00E94C10B823028F00E94C10B4C
:100BC000853008F41DCE82E0C0CFC13D9CE5D90739
:100BD00071F4882309F474C00E94C10B8F3028F08F
:100BE0000E94C10B843108F40BCE8FE0AECFC23D22
:100BF000DC4570F4882309F463C00E94C10B89307E
:100C000028F00E94C10B8E3008F4FACD89E09DCF08
:100C1000882309F455C00E94C10B853128F00E9439
:100C2000C10B873108F4ECCD85E18FCFCD3DFCE5DC
:100C3000DF0749F4F8018281882309F441C082E08A
:100C40000E94A3273DC0CE3D8CE5D80738F5C53DB1
:100C50009CE5D90731F4F8018281882389F183E288
:100C600074CFC53DECE5DE0778F4F8018281882376
:100C700039F10E94C10B893128F00E94C10B8232E8
:100C800008F4BECD89E161CFCC3DDC4509F0DBCE77
:100C9000F80182818823A1F080E0D2CFCE3D8CE59F
:100CA000D80739F4F8018281882351F00E94B31FDC
:100CB00007C0CE01875F9C45079708F4AECDC3CE31
:100CC00080E0DF91CF911F910F91089580E090E037
:100CD0000895089526E4829FC0011124FC0127E0B5
:100CE000729FE00DF11D1124E60FF11DEE0FFF1FA5
:100CF000E450FF4F859194910895880F991FFC014E
:100D0000E056FD4F859194910895CF93DF930E9413
:100D10006A060E943F08EC018115904508F041C029
:100D2000C11580E4D80708F028C1C83ED10510F5E8
:100D3000C03ED10508F09FC1C83AD10578F4C53A44
:100D4000D10508F0A2C0C130D10509F494C108F45E
:100D500045C1C430D10508F08EC140C1CF3BD1059B
:100D600008F49EC0C03CD10508F438C1CE01805CB7
:100D70009109F5C0C11590E2D90758F4C11521E0D9
:100D8000D20708F078C1C03FD10508F427C1D0656B
:100D900072C1C11580E3D80708F0E5C0CE019F708D
:100DA000DEC0C11595E5D90708F043C0C11524E59B
:100DB000D20708F0F9C0C11582E5D80708F5C115BA
:100DC00091E5D90708F0DCC0CE0174E096958795CF
:100DD0007A95E1F783709C2F937021E030E002C098
:100DE000220F331F9A95E2F73C68382BCF70C695D7
:100DF000C69580E2C89FE0011124C22BD32B3BC1D2
:100E00009E01237033278C2F86958695C115D34577
:100E100008F0BBC0C1E0D0E002C0CC0FDD1F2A95B6
:100E2000E2F720E2829FC0011124C82BD92BDC6895
:100E300022C1C11529E5D207A0F4C11588E5D8075C
:100E400008F0B7C0C11596E5D90708F0C7C08C2FC8
:100E50000E94D3088F71C82FD0E0DC2FCC27D0623E
:100E60000AC1C1152AE5D20708F4A8C0CE019056E0
:100E70008115904208F0B2C08D2F8F710E94D30867
:100E8000DD27D0628F71D82BF6C0C53AD10509F4A1
:100E9000A8C0C63AD10509F0A7C0C2E8D0E4EBC0AB
:100EA000C83AD10509F4A3C0C93AD10509F4A2C0D2
:100EB000CA3AD10509F4A1C0CB3AD10509F4A0C0C2
:100EC000CC3AD10509F49FC0CB3BD10509F49EC0B3
:100ED000CC3BD10509F49DC0CD3AD10509F49CC0A5
:100EE000C03BD10509F49BC0CE3AD10509F49AC0A4
:100EF000CF3AD10509F499C0C13BD10509F498C096
:100F0000C23BD10509F497C0C33BD10509F496C093
:100F1000C43BD10509F495C0C53BD10509F494C083
:100F2000C63BD10509F493C0C73BD10509F492C073
:100F3000C83BD10509F491C0C93BD10509F490C063
:100F4000CD3BD10509F48FC0CE3BD10509F48EC04D
:100F5000CA3BD10509F48DC0C0E0D4E48CC00E9426
:100F60007D06EC0188C0CE019927D3FF03C0EC01B8
:100F7000D86C81C0EC01D06C7EC0DF70D06A7BC0C1
:100F8000DC2FCC27C16FD06A76C0C1E0D0E002C0B0
:100F9000CC0FDD1F2A95E2F720E2829FC0011124C9
:100FA000C82BD92BDA6867C0DC2FCC27C46FD06A76
:100FB00062C0DC2FCC27C06FD06A5DC08C2F8F70D1
:100FC0000E94D30894E0D695C7959A95E1F7CF7023
:100FD000D0E0DC2FCC27D069C82B4DC0C0E0D0E0DA
:100FE0004AC0C1E8D0E447C0C3E8D0E444C0C2EE80
:100FF000D4E441C0C9EED4E43EC0CAEED4E43BC060
:10100000C5EBD4E438C0C6EBD4E435C0C3EBD4E4BC
:1010100032C0C4EBD4E42FC0C7EBD4E42CC0CCEC7A
:10102000D4E429C0CDECD4E426C0C3E8D5E423C081
:10103000CAE8D5E420C0C2E9D5E41DC0C4E9D5E4BE
:101040001AC0C1E2D6E417C0C3E2D6E414C0C4E2B9
:10105000D6E411C0C5E2D6E40EC0C6E2D6E40BC0A9
:10106000C7E2D6E408C0CFE6D4E405C0C0E7D4E4C4
:1010700002C0CAE2D6E4CE01DF91CF910895823852
:10108000910569F1B0F48133910509F46DC048F41C
:101090008932910509F463C08A32910509F469C067
:1010A00008958533910509F455C089339105B9F048
:1010B0000895833E910569F138F4803E9105B1F0C1
:1010C000823E910509F10895863E9105A9F1873E7A
:1010D0009105B9F1843E910509F064C023C02091C7
:1010E0007E0220FD4FC021FD4DC0089580917E02FB
:1010F00080FD44C080917F0280FF44C080917E02C9
:1011000084FD42C083EE4DC080917E0282FF38C0D4
:10111000F5CF80917E0282FD33C080917F0280FDF9
:1011200031C0ECCF80917F0281FF32C080917E027E
:1011300084FD2AC087EE35C080917E0283FF26C0E1
:10114000F5CF80917E0283FD21C080917F0281FDD9
:101150001FC0ECCF80917E0285FD1CC01DC0809118
:101160007E0285FD19C016C080917E0286FD16C0E4
:1011700017C080917E0286FD13C010C089E311C0A4
:1011800082EE0FC080EE0DC080E00BC086EE09C07D
:1011900084EE07C089E205C085E303C08AE201C08E
:1011A00081E390E0089590917E0292FF0DC0282F78
:1011B0002871283019F4877F846006C0282F247195
:1011C000243011F48B7F886093FF0DC0282F287185
:1011D000283119F4877E846106C0282F24712431B8
:1011E00011F48B7E886120917F0220FF0DC0382F83
:1011F0003871383019F4877F816006C0382F31711B
:10120000313011F48E7F886021FF0DC0282F2871A6
:10121000283119F4877E816106C0282F2171213180
:1012200011F48E7E886194FD877E089508950C9454
:1012300016090C9417090C941609E82FF0E0ED58E4
:10124000FE4F808108950895CF93DF938091260209
:101250008360886080932602809100018091000164
:10126000811102C095E001C090E09093420285E0B8
:10127000891B80934102A3E3B1E048E351E061E0C0
:1012800070E08D91E82FE295EF70F0E021A18F7072
:10129000EB0102C0CC0FDD1F8A95E2F7CE019C2F37
:1012A0009095922391A392A1892B82A34A175B0761
:1012B00041F7ACE2B1E043E351E061E070E08D91D1
:1012C000E82FE295EF70F0E021A18F70EB0102C0F2
:1012D000CC0FDD1F8A95E2F7CE019C2F90959223CB
:1012E00091A392A1892B82A34A175B0741F7E3E7F9
:1012F000F1E08DE791E011928E179F07E1F785E00D
:101300000E944A0ADF91CF910C948A036F927F92D8
:101310008F929F92AF92BF92CF92DF92EF92FF9205
:101320000F931F93CF93DF9363E371E0AEE6B1E0D9
:1013300023E7A22E21E0B22E712C01E010E06D0116
:101340009C901C92EB018991BE01E82FE295EF7011
:10135000F0E021A18F70A80102C0440F551F8A95AB
:10136000E2F7CA01242B21A322A1642E6094262136
:1013700022A350EA5A95F1F79CE2E92E91E0F92E6A
:1013800040E050E0E70189907E01282D22952F70E2
:1013900030E0E90128A130E0D82DDF7002C035959A
:1013A0002795DA95E2F720FD07C09801042E01C0C9
:1013B000220F0A94EAF702C020E030E03C91232B90
:1013C0002C934F5F5F4F47305105E1F691A1D62D29
:1013D000D923D1A392A1892B82A3119681E0F60192
:1013E0009081991101C080E0782AAA16BB0609F005
:1013F000A6CF6091420270E06D587E4F272D45E0E8
:101400008EE691E00E944B0A872DDF91CF911F91CC
:101410000F91FF90EF90DF90CF90BF90AF909F9093
:101420008F907F906F900895CF930E948609C82F68
:101430000E94810A882311F18091410290E08D5829
:101440009E4F0E94B70A811114C080916D018F5F79
:1014500080936D01863078F0E0914102F0E0ED5824
:10146000FE4F80E090E01192019685309105D9F70A
:1014700002C010926D010E94920309C08091420245
:1014800090E08D589E4F0E94D20A0E9416098C2F20
:10149000CF9108950895FF920F931F93CF93DF93F9
:1014A0008C01F62ED72FC42F222349F081E08093A0
:1014B0007F010E94962090937E0180937D01809110
:1014C0007F018823C1F080917D0190917E010E946F
:1014D000A220069780F0EF2DFD2FD8014C2F50E071
:1014E000CD01801B910B841795071CF48D9181937E
:1014F000F7CF10927F01DF91CF911F910F91FF9055
:10150000089580918001811112C08091D80080617E
:101510008093D8008AE18A95F1F700C08091D900C4
:1015200080FD02C082E001C081E08093800181E003
:1015300090918001913009F080E008950C94810A27
:101540000E949E0A809300010E94810A81110C94DE
:10155000AB0A0C94B10A61E070E081E091E00C9478
:10156000F41161E070E081E091E00C94FB11CF9305
:10157000DF93D82FC92F0E949312892B79F4ED2F76
:10158000FC2F80E090E0DC01AE57BE4F2C91219300
:10159000019685309105B9F781E001C080E0DF91C7
:1015A000CF91089520E030E0FC014191CF01F90195
:1015B000EE57FE4F40832F5F3F4F25303105A1F797
:1015C0000895CF92DF92EF92FF920F931F93CF93E4
:1015D000DF93362F472F282FE82FF0E0711106C038
:1015E000E954FC4F6491762F862F7BC0072F10E0C3
:1015F00056E0659FC0011124CFEFD0E0BE010E94EC
:101600006E2C5BEA5603C001579F900D1124830F87
:10161000911D830F911D982F990F980F7E01E01A4D
:10162000F10AEE9ED001EF9EB00DFE9EB00D11248A
:101630008B2F499FA0011124452F55277E01E41AC5
:10164000F50AEE9EA001EF9E500DFE9E500D112456
:101650006E01C91AD108C09E7001C19EF00CD09EC7
:10166000F00C11240F2D1127C01BD10BCE9F800130
:10167000CF9F100DDE9F100D11246230710591F087
:1016800048F461157105E1F061307105B1F49B2FEB
:10169000E52F0AC06430710569F040F066307105CD
:1016A00079F00BC0912FEB2F822F0DC0922FEB2FD3
:1016B000852F09C0922FE12F06C0952FE22F03C07E
:1016C0009B2FE22F812FF0E0E954FC4F7491E82F1B
:1016D000F0E0E954FC4F6491E92FF0E0E954FC4F4D
:1016E0008491DF91CF911F910F91FF90EF90DF9048
:1016F000CF9008950895CF93DF93762FE901682F57
:10170000842F0E94E10A798368838A83DF91CF91D5
:10171000089580914302282F269530E02115310548
:1017200019F48170826005C02532310524F0817082
:10173000886480934302089588E090E00C94B12C73
:10174000CF92DF92EF92FF926B017C010E94890B96
:10175000B701A60188E090E0FF90EF90DF90CF9076
:101760000C94CF2CE3E4F2E083E0808311828FEFCE
:1017700082838383148260817181828193810C943E
:10178000A00B8091430280FF02C08695089580E0FF
:10179000089580914702833018F48F5F8093470249
:1017A00060914302709144028091450290914602FB
:1017B0000C94A00B80914702882319F081508093EC
:1017C00047026091430270914402809145029091DA
:1017D00046020C94A00B60910D0170E080914302D1
:1017E00080FF0AC080918B0123E0829FC0011124F9
:1017F000885B9D4F0C94E11080918A0190910C01BF
:10180000891780F7E82FF0E09F01220F331FE20FC6
:10181000F31FE85BFD4F1182108212828F5FF0CFC1
:101820009091430290FF16C090918A0120910C0183
:10183000921770F4E92FF0E0DF01AA0FBB1FEA0F47
:10184000FB1FE85BFD4F8183608342839F5FF0CF86
:101850000C94EB0B0895CF93DF9300D01F92CDB77C
:10186000DEB79091430290FF0AC09E012F5F3F4F69
:101870000E947B0B4B8169818A810E94100C0F9022
:101880000F900F90DF91CF910895CF93DF93EC01EC
:10189000EC81F0E0EE54FD4F4491E3E4F2E062812C
:1018A00081810E942B0C8C818F5F8C83DF91CF9183
:1018B0000895CF93DF93EC01E3E4F2E0438162818A
:1018C0008C810E942B0C8C818F5F8C83DF91CF9158
:1018D00008950F931F93CF93DF9300D01F92CDB73E
:1018E000DEB78C018091870181110AC09E012F5FB4
:1018F0003F4F4FEF6FEF0E947B0B8A8180938701F0
:10190000F8018481813051F028F0823061F44091F7
:1019100087010AC08091870140E007C0609187017C
:1019200040E080E003C040E080E060E00E94100CF6
:10193000F801848190E0019663E070E00E94822CBF
:1019400084830F900F900F90DF91CF911F910F9193
:101950000895AF92BF92CF92DF92EF92FF920F93D2
:101960001F93CF93DF9300D01F92CDB7DEB7182F10
:10197000F62E042FE22E9091430290FF6DC0E92FC6
:10198000E695AE2FB0E0A35CBE4F8C91809393019F
:101990009E7F923061F49E012F5F3F4F812F0E9406
:1019A0007B0B4B8169818A810E94100C43C082307D
:1019B00019F4009146023EC0863019F41091440299
:1019C00039C08930D9F38931A9F5E9518E2F817059
:1019D000D82EE695F0E0EE54FC4FA590B490C12CC3
:1019E000BB2460910B01C61618F52C2D30E0A29E89
:1019F000C001A39E900DB29E900D112470E00E9434
:101A00006E2C812FD11002C0860F01C0861B9091D1
:101A10008A01290F311DA901440F551F240F351FBD
:101A2000285B3D4F402F6F2D0E947B0BC394D9CF75
:101A30000E94EB0B10934402F09245020093460281
:101A4000EE2051F060914302709144028091450272
:101A5000909146020E94A00B0F900F900F90DF9183
:101A6000CF911F910F91FF90EF90DF90CF90BF909B
:101A7000AF900895E3E4F2E09181282F43816281E1
:101A800088E0890F0C94A90C81E00C943A0DE3E4F2
:101A9000F2E09181282F4381628188EF890F0C94B5
:101AA000A90C81E00C94470DE3E4F2E0628128E0A8
:101AB000620F08F46FEF282F438181810C94A90CE9
:101AC00081E00C94540DE3E4F2E0628128E0621BB3
:101AD00008F460E0282F438181810C94A90C81E0F7
:101AE0000C94630DE3E4F2E0438128E0420F08F434
:101AF0004FEF282F628181810C94A90C81E00C9416
:101B0000720DE3E4F2E0438128E0421B08F440E078
:101B1000282F628181810C94A90C81E00C94810DA5
:101B200020E00C94A90CFF920F931F93CF93DF93A7
:101B3000EC01F12C0FEF10E060910B01F616F0F4C0
:101B400080918A012F2D30E0280F311DC901880FA7
:101B5000991F280F391F285B3D4F70E0C8010E9474
:101B6000822C962F8C814091460260914502F99E0D
:101B7000800D11240E947B0BF394DECF0E94EB0BAF
:101B80009A818C8190FF02C08F5F01C081508C834D
:101B9000DF91CF911F910F91FF900895BF92CF9247
:101BA000DF92EF92FF920F931F93CF93DF93FC018D
:101BB000828180FF02C00FEF01C001E010E0809140
:101BC0000B011817E0F580918A01C12ED12CE60196
:101BD000C80FD11DCE01880F991FC80FD91FC85B30
:101BE000DD4F198218821A8234E0E32EF12CB12CD9
:101BF000809189018B0D87FF03C090910B01890FA4
:101C0000082E000C990BC816D90691F48091460253
:101C10008E9DA0018F9D500D11245595479555958A
:101C200047959E0160914502809144020E947B0B82
:101C3000B00EF1E0EF1AF108D9F61F5FC0CF0E9495
:101C4000EB0B80918901013031F4811102C0809148
:101C50000B01815007C090E0019660910B0170E08C
:101C60000E94822C80938901DF91CF911F910F9167
:101C7000FF90EF90DF90CF90BF900895CF93809129
:101C80008A0190910C01891770F4E82FF0E09F0110
:101C9000220F331FE20FF31FE85BFD4F118210820A
:101CA00012828F5FF0CFC0E060910B01C617C0F5C4
:101CB000EC2FF0E070E0CF010E94822C20918A018D
:101CC000820F20918801022E000C330B90E0E21766
:101CD000F307CCF020910A01022E000C330B2E17D3
:101CE0003F078CF09C01220F331F820F931F9C0132
:101CF000285B3D4F4091460260914502809144022D
:101D00000E947B0B0BC0FC01EE0FFF1F8E0F9F1F6D
:101D1000FC01E85BFD4F118210821282CF5FC4CFBD
:101D20000E94EB0B2091090180918801820F809322
:101D3000880190910A01920F90930A0119165CF4A0
:101D4000082E000C990B40910B0150E041505109B5
:101D5000841795071CF0219520930901CF910895D0
:101D60000F931F93CF93DF938C01FC0184819581A6
:101D700001968170992795838483C0E0D5E5809191
:101D80000B01C81700F580918A012C2F30E0280F35
:101D9000311DC901880F991F280F391F285B3D4F3E
:101DA0004C2F4695F80184819581840F911D817097
:101DB00040914602609145028D9F802D11240E9422
:101DC0007B0BCF5FDCCFDF91CF911F910F910C94F4
:101DD000EB0B0F931F93CF93DF93EC0100E010E028
:101DE00080910B01282F30E00217130724F5909102
:101DF0008A019801290F311DA901440F551F240F95
:101E0000351F285B3D4F869590E04C8108171907D8
:101E10001CF4442331F002C0411103C0409146023A
:101E200001C040E060914502809144020E947B0B1A
:101E30000F5F1F4FD5CF0E94EB0B8C8190E0019676
:101E4000817099278C83DF91CF911F910F91089515
:101E5000E3E4F2E080818E7F808360817181828102
:101E600093810E94A00B109294012FEF80E792E0E3
:101E7000215080409040E1F700C000000C94EB0B33
:101E8000E3E4F2E080818E7F8083109294012FEF53
:101E900080E792E0215080409040E1F700C00000D0
:101EA0000C94EB0B60914302669570E04BE050E0C0
:101EB0008EE091E00E949C2C892B19F481E08093A4
:101EC00094010E94962090938D0180938C01089537
:101ED0009091430290FF35C09170811102C09260D1
:101EE00006C0853210F0986402C0880F982B90933A
:101EF0004302662351F06091430270914402809145
:101F00004502909146020E94A00B609143026695A3
:101F100070E04BE050E08EE091E00E949C2C892B19
:101F200019F01092940102C00E94520F81E0809338
:101F30008F014091460260914502809144020C94C9
:101F4000900D0895682F90914302969581E0890F36
:101F5000853208F081E00C94680F81E00C94A20FA8
:101F6000682F9091430296958FEF890F09F484E2D0
:101F70000C94680F81E00C94B00F61E00C94680F32
:101F8000E3E4F2E080818160808386950C94BD0F4C
:101F90008091430280FD0C94280F0C94C00F60E0E8
:101FA0000C94680F80919201811133C080912602B8
:101FB0008160809326020E94131F811104C00E9439
:101FC000B31F0E94B20B0E949C0B6093430270935C
:101FD000440280934502909346026E7F61F40E9412
:101FE000B20B0E949C0B6093430270934402809357
:101FF0004502909346020E94890B109294018091B1
:10200000430280FF03C086950E94CF0F81E080933A
:1020100092010895E3E4F2E08081816080838695F7
:102020000C94CF0F1092940108950F931F93CF93A8
:10203000DF9380919401882309F48CC080919301EF
:10204000E0914302E695E81BE0938E01823049F46B
:10205000F0E0E255FD4FE491CE2FD0E005E41CE026
:1020600049C0863049F4F0E0E555FD4FE491CE2FAC
:10207000D0E009E51CE03EC0893051F4E695F0E07F
:10208000E855FD4FE491CE2FD0E003E91DE032C0CA
:102090008F3051F4E695F0E0EB55FD4FE491CE2FF3
:1020A000D0E00EEC1DE026C0853149F4F0E0EE559D
:1020B000FD4FE491CE2FD0E00EE31EE01BC088312F
:1020C00081F0833239F4E0EAF2E0C591D49109E677
:1020D0001CE010C0843251F4C4EFD1E009EE1EE0E0
:1020E00009C0C8EED3E000EB1EE004C0C0EDD7E0AD
:1020F0000AE71BE080918F01882389F010928F01FD
:102100000E9496209E0120953095820F931F9093F8
:102110008D0180938C011092910110929001809119
:102120008C0190918D010E94A2208C179D0790F048
:10213000E0918C01F0918D01CE0FDF1FD0938D01C6
:10214000C0938C018CE891E0F801DF91CF911F9151
:102150000F910994DF91CF911F910F9108952BB1A9
:10216000342F309523233BB1432B3FB7F894FC0128
:10217000680F791FE617F70789F0819198E04BB94E
:10218000000000C087FF2BB9880F000000C000C00E
:1021900000C02BB900C09A9591F7ECCF3FBF0895CE
:1021A0002AB1242B2AB99B01220F331F620F731F00
:1021B0000E94AF1087EC90E00197F1F700C000009B
:1021C000089542E00C94D0100F931F93CF93DF93A8
:1021D000C62FD42F122FFC0182818823C9F060936F
:1021E00097010E949620909396018093950180E23A
:1021F0008C0F883008F057C0C77081E001C0880F8D
:10220000CA95EAF7DF91CF911F910F910C94D615E3
:1022100080919701681330C080919501909196014B
:102220000E94A220883C910538F500E20D0FCD17E1
:10223000B9F080E28C0F883040F4C77081E001C0B3
:10224000880FCA95EAF70E94DD15083028F581E06D
:102250009D2F977001C0880F9A95EAF70E94D615B6
:10226000812F0E94C3150830F0F4D77081E001C0BF
:10227000880FDA95EAF70AC080E28C0F883098F46C
:10228000C77081E001C0880FCA95EAF7DF91CF914E
:102290001F910F910C94DD15812FDF91CF911F912C
:1022A0000F910C94C315DF91CF911F910F91089559
:1022B0009C01CB01203F4CE53407F9F078F4283D30
:1022C000FCE53F07B9F0293D4CE5340711F1273D06
:1022D0003C4531F526E241EE61EE1EC0223FFCE5B1
:1022E0003F0799F070F0233F3C45D1F427E245EEDB
:1022F00066EE12C027E245EE0EC026E241EE60EE29
:102300000BC027E245EE64EE07C026E241EE62EE26
:1023100003C028E241E065EE0E94E41080E00895E9
:10232000FC018281882319F010929701089581E0C1
:1023300008958EE1489B02C08150E1F7489BFECF93
:102340000895589880E28A95F1F7589A0895FC010B
:102350002AE02A95F1F728E090E080E031E040E1C2
:102360004A95F1F7880F489B02C08160932700C00F
:10237000000040E14A95F1F7215089F720E12A95C4
:10238000F1F729B100C0000030E13A95F1F7217072
:1023900092272081920F90830895EF92FF920F93DE
:1023A0001F93CF93DF931F92CDB7DEB719828C01B5
:1023B0007C01E60EF11C0E151F0551F00E949911CB
:1023C000CE0101960E94A711F80181938F01F3CFEE
:1023D00081E09981911180E00F90DF91CF911F9161
:1023E0000F91FF90EF900895909399018093980139
:1023F000509A589A08959093990180939801509813
:10240000589AE89AE9E6F0E080818C7F808308950D
:10241000615091E001C0990F6A95EAF720E031E040
:10242000992361F0492F482319F0589A232701C0B6
:10243000589840E24A95F1F79695F2CF222311F091
:10244000589A01C0589880E28A95F1F758980895F3
:10245000FF920F931F93CF93DF93EC018C01060F34
:10246000111DC017D10741F0F9900E94A11168E039
:102470008F2D0E940812F5CFDF91CF911F910F9100
:10248000FF9008951F920F920FB60F9211242F9371
:102490003F934F935F936F937F938F939F93AF93EC
:1024A000BF93CF93DF93EF93FF935898509AC091C7
:1024B0009801D09199016D81662321F08E819F81D1
:1024C0000E9428120E94A11180E18A95F1F7589884
:1024D0005098589A80E18A95F1F76A81662351F005
:1024E0008B819C810E94CD11E881F981811104C00A
:1024F00082E003C0E881F98188E080830E9499111D
:10250000FF91EF91DF91CF91BF91AF919F918F910B
:102510007F916F915F914F913F912F910F900FBEDF
:102520000F901F901895CF93DF93C0919801D09191
:102530009901F894509A589885E08A95F1F700002F
:102540005098589A80E28A95F1F7489B0AC0509AB1
:10255000589AE881F98181E08083789481E090E065
:102560002CC06D81662381F08E819F810E94CD11E8
:1025700081110AC0509A589AE881F98182E08083DB
:10258000789482E090E019C00E94991180E28A95C7
:10259000F1F75898509A80E18A95F1F76A8166239D
:1025A00021F08B819C810E9428120E94A111E88158
:1025B000F9811082789480E090E0DF91CF910895C6
:1025C00090939F0180939E010895E0919E01F09168
:1025D0009F01309721F00190F081E02D099480E077
:1025E0000895E0919E01F0919F01309721F00280C3
:1025F000F381E02D09940895E0919E01F0919F01EF
:10260000309739F022E0DC012C930480F581E02D35
:102610000994089520919C0130919D012817390754
:1026200071F090939D0180939C01E0919E01F09147
:102630009F01309721F00680F781E02D09940895DD
:1026400020919A0130919B012817390771F09093DE
:102650009B0180939A01E0919E01F0919F01309738
:1026600021F00084F185E02D0994089585B78068F4
:1026700085BF85B7806885BF089508950C943D1384
:102680000C943E130C943D130E9436130E94A00A32
:102690000C9440130E948D200E9424090E94032163
:1026A0000E94D20F0C944213BF92CF92DF92EF920E
:1026B000FF920F931F93CF93DF93CDB7DEB72A9787
:1026C0000FB6F894DEBF0FBECDBF0E94140A0E9461
:1026D000810A811111C08FEF89838A831B820E9436
:1026E00096208160782F9D838C8349815A816B81EC
:1026F0008D810E94FD1354C081EAC82E81E0D82E3E
:1027000000E010E0B02E802F0E941D09E82EF60197
:1027100021916F01F82EF22631F40F5F1F4F0A301E
:10272000110581F7D8CF8091260281FD0E942309EF
:1027300080E090E02F2D30E0482FB901082E02C034
:10274000759567950A94E2F760FF25C08E83BF8276
:1027500081E090E06C0102C0CC0CDD1C4A95E2F7F0
:102760002E2D30E02C213D21232B09F480E0888799
:102770000E9496208160782F9A8789874E815F8199
:1027800068858A850E94FD13F801EF55FE4F808110
:102790008C25808305C001968730910569F6BDCFF1
:1027A0000E9495220E94E5129091A0018917A9F03C
:1027B0000E94E5128093A0012A960FB6F894DEBF1E
:1027C0000FBECDBFDF91CF911F910F91FF90EF9082
:1027D000DF90CF90BF900C9497032A960FB6F89491
:1027E000DEBF0FBECDBFDF91CF911F910F91FF9044
:1027F000EF90DF90CF90BF900895CF93DF93CDB748
:10280000DEB72B970FB6F894DEBF0FBECDBF4F8358
:10281000588769877A878B87DE01119686E0FD01EC
:1028200011928A95E9F785E0FE01379601900D92A5
:102830008A95E1F749815A816B817C818D819E81E6
:102840000E944F1B2B960FB6F894DEBF0FBECDBF74
:10285000DF91CF910895FC01808191810E94231E18
:102860000895CF93882309F424C1C82F8238C1F476
:102870000E94E51281FD1DC169E3809119019091CB
:102880001A010E94E81F0E94B01E2FEF81EE94E013
:10289000215080409040E1F700C0000069E319C07A
:1028A000833801F50E94E51280FD03C163E5809144
:1028B000190190911A010E94E81F0E94B01E2FEF8B
:1028C00081EE94E0215080409040E1F700C000008C
:1028D00063E58091190190911A010E94EA1FCF913E
:1028E0000C94B01E8438C1F40E94E51282FDE1C050
:1028F00067E48091190190911A010E94E81F0E94DB
:10290000B01E2FEF81EE94E0215080409040E1F71F
:1029100000C0000067E4DDCF8CEF8C0F813A68F4D3
:102920008C2F0E94C5248111C4C06C2F8091190185
:1029300090911A010E94E81FD2CF80E28C0F88305C
:1029400048F4C77081E001C0880FCA95EAF70E9479
:10295000651EC5CF8BE58C0F833078F4C53A29F01E
:10296000C63A31F083E890E005C081E890E002C00B
:1029700082E890E0CF910C940A1388E58C0F8731A0
:1029800008F08FC0C83A09F445C0C93A09F445C0F7
:10299000CA3A09F445C0CB3A09F445C0CC3A09F427
:1029A00045C0CB3B09F445C0CC3B09F445C0CD3A0A
:1029B00009F445C0C03B09F445C0CE3A09F445C00E
:1029C000CF3A09F445C0C13B09F445C0C23B09F404
:1029D00045C0C33B09F445C0C43B09F445C0C53BF1
:1029E00009F445C0C63B09F445C0C73B09F445C0DE
:1029F000C83B09F445C0C93B09F445C0CD3B09F4C7
:102A000045C0CE3B09F445C0CA3B09F445C080E04F
:102A100090E044C082EE90E041C089EE90E03EC07C
:102A20008AEE90E03BC085EB90E038C086EB90E00A
:102A300035C083EB90E032C084EB90E02FC087EB91
:102A400090E02CC08CEC90E029C08DEC90E026C08A
:102A500083E891E023C08AE891E020C082E991E018
:102A60001DC084E991E01AC081E292E017C083E2C0
:102A700092E014C084E292E011C085E292E00EC0C0
:102A800086E292E00BC087E292E008C08FE690E019
:102A900005C080E790E002C08AE292E0CF910C94FA
:102AA0002013C03F30F08C2F0E949D21CF910C94B9
:102AB0008A22CF910895882309F464C0823879F47A
:102AC0000E94E51281FF5EC069E380911901909137
:102AD0001A010E94E81F0E94B01E69E310C08338EB
:102AE000B1F40E94E51280FF4DC063E580911901A9
:102AF00090911A010E94E81F0E94B01E63E5809128
:102B0000190190911A010E94EA1F0C94B01E84389A
:102B100079F40E94E51282FF35C067E480911901C3
:102B200090911A010E94E81F0E94B01E67E4E7CF4F
:102B30009CEF980F913A10F4682FE1CF90E2980F34
:102B4000983050F4877091E001C0990F8A95EAF7A8
:102B5000892F0E946B1ED9CF9BE5980F933020F4EC
:102B600080E090E00C940A1398E5980F973120F4D8
:102B700080E090E00C942013803F20F00E9405221A
:102B80000C948A220895CF93C82F0E943114C93320
:102B900049F42FEF87EE93E0215080409040E1F719
:102BA00000C000008C2FCF910C945B15882321F07E
:102BB0000E94651E0C94B01E0895882321F00E9487
:102BC0006B1E0C94B01E0895CF92DF92EF92FF928D
:102BD0000F931F93CF93DF937C01062FC72FFC0128
:102BE000158112951F70D281D1110E94821E0E9400
:102BF0005B1E882379F0DD2369F080E2800F883046
:102C000048F082E00E94FA1E0E945B1E91E0D82EDE
:102C1000D92601C0D12CCC2EC2948FE0C8228C2D95
:102C200090E0FC01EA5AFF4F0C94962C8C2F807F89
:102C3000CF70882311F0C295C07FDD2399F0CC239B
:102C400009F4C4C180E2800F883010F0011104C083
:102C50008C2F0E94651E03C08C2F0E94751E0E943F
:102C6000B01EB4C1802F0E945B15CC2309F4D3C1E0
:102C700080E2800F883010F0011104C08C2F0E9478
:102C80006B1E03C08C2F0E947B1E0E94B01EC3C10E
:102C90008C2F807FCF70803211F0C295C07F0023CF
:102CA00019F00130C9F022C0DD2371F0112341F089
:102CB000113031F40E94951E8C2B0E949D1EABC1D9
:102CC0000E94951E8C2B1DC0112319F0113009F4A0
:102CD000A2C10E94A61E25C0DD2321F0163008F0F7
:102CE0009AC10EC0153008F096C11BC0DD2361F0FB
:102CF000112331F0F701858180FF68C18F708583D2
:102D00008C2F0E94D61587C1112359F0093309F081
:102D10006EC1FFEF27EE83E0F15020408040E1F7E5
:102D200064C18C2F0E94DD1576C18C2F8695869507
:102D3000837019F0813061F06EC1DD2321F0802FA6
:102D40009C2F937002C080E090E00E940A136BC138
:102D5000DD2321F0802F9C2F937002C080E090E053
:102D60000E94201360C1DD23F9F0053F51F0063FBA
:102D700071F0043FA9F4809178029091790281600A
:102D80000BC08091780290917902826005C0809199
:102D9000780290917902846090937902809378020E
:102DA000802F0E949D211EC0053F51F0063F71F00B
:102DB000043FA9F480917802909179028E7F0BC034
:102DC00080917802909179028D7F05C08091780280
:102DD000909179028B7F9093790280937802802F73
:102DE0000E9405220E948A221EC18C2F837009F046
:102DF00045C0D11114C1402F429546954770440FEC
:102E0000440F602F6F70862F90E0A0E0B0E0042E9A
:102E100004C0880F991FAA1FBB1F0A94D2F704FF92
:102E200010C00FE010E020E030E004C0000F111FE0
:102E3000221F331F4A95D2F70095109520953095A3
:102E400003C000E010E09801C695C695C370BC01B0
:102E5000CD01602B712B822B932BC23049F058F49B
:102E6000C13019F00E94A01CDAC00E948E1CD7C08D
:102E70000E94B21CD4C00E948C1CD1C0DD2319F06A
:102E80008C2F817001C08695882309F4C8C0402F1B
:102E9000429546954770440F440F602F6F70862F00
:102EA00090E0A0E0B0E0042E04C0880F991FAA1F94
:102EB000BB1F0A94D2F704FF10C00FE010E020E01F
:102EC00030E004C0000F111F221F331F4A95D2F7B4
:102ED000009510952095309503C000E010E0980112
:102EE000C695C695C370BC01CD01602B712B822B9A
:102EF000932BC23049F058F4C13019F00E94651D7F
:102F00008EC00E94531D8BC00E94771D88C00E94F6
:102F1000C61C85C0CF70DD2339F08C2F0E94EC1CBD
:102F2000802F0E94D6157BC0802F0E94DD158C2F2C
:102F30000E940D1D74C0023F01F128F4003F41F0D2
:102F4000013FA1F03FC0033FF9F0043F39F13AC01F
:102F5000DD2341F0153008F05EC08C2F8F710E9488
:102F6000321D59C0163008F056C0F7CFDD2339F0B6
:102F70008C2F8F710E94EC1C4EC0DD23C9F38C2F67
:102F80008F710E940D1D47C0DD2329F08C2F8F719A
:102F90000E94D71C40C00E94D21C3DC0DD2349F0D6
:102FA000CF718C2F0E94EC1C63E08C2F0E94E51ED9
:102FB00032C081E00E94FA1E123068F182E00E9465
:102FC000FA1E29C0DD2331F0112391F2802F0E94D7
:102FD000311421C0112399F2093349F49FEFE7EE30
:102FE000F3E09150E040F040E1F700C00000802F96
:102FF0000E945B1510C04C2F4F70602FC7010E94BC
:1030000066060E94FD1B0FC04C2F4F70602FC7013A
:103010000E94690608C088EF8C0D843020F40E945D
:10302000E5120E949703DD20C9F00E94571E80FD23
:1030300015C0F70112820E94511E0E94EC1CC701AC
:103040000E9437180E94511EDF91CF911F910F915E
:10305000FF90EF90DF90CF900C940D1DDF91CF91FA
:103060001F910F91FF90EF90DF90CF9008950F93F5
:103070001F93CF93DF93EC01988189812B813C8151
:10308000232B31F08F3F31F481E09F3F19F403C0CF
:1030900081E001C080E080FD13C0CE010E94AF033B
:1030A000882371F0688179818A810E942E1E8C01AB
:1030B0000E94891D0E947A1CB801CE010E94E4156D
:1030C000DF91CF911F910F9108950E94821E0E945F
:1030D000921E0E94B01E0E9430230E948A2280E02D
:1030E00090E00E940A1380E090E00C9420138091FD
:1030F000190190911A010E94EC1F0C9465180E940E
:10310000721E0C947718E92FE295EF704E2F50E065
:10311000FA013297EE30F105B0F4EA59FF4F0C9402
:10312000962C803F91F018F4883E68F40EC0843FDE
:1031300051F40BC0883E48F0813F29F406C093FB50
:10314000882780F9089580E0089581E008950E941D
:10315000231E0E9483180895CF93DF9300D000D0E0
:103160001F92CDB7DEB70F900F900F900F900F907A
:10317000DF91CF910895CF93DF9300D000D000D09E
:10318000CDB7DEB726960FB6F894DEBF0FBECDBF23
:10319000DF91CF9108951F93CF93DF93C091AC013E
:1031A00016E08091AD01C81799F0D0E01C9FF001A6
:1031B0001D9FF00D1124E255FE4F40815181628127
:1031C0007381848195810E94BB182196C770E9CFD5
:1031D000DF91CF911F9108954091DE015091DF0161
:1031E0006091E0017091E1018091E2019091E30131
:1031F0000C94BB18CF938091E30182958F7009F0F6
:103200005FC08091E001882309F45AC08091AC012D
:10321000B091AD017091DE01A091DF014091E1011B
:103220005091E20191E07F3F09F090E0692FC6E004
:103230008B1709F445C04115510521F0AF3F21F02E
:1032400020E003C021E001C0262F90E020FD35C022
:10325000C89FF001C99FF00D1124E255FE4F218156
:103260002A132BC02081271328C02281211125C0B9
:10327000238134812417350710F421503109241B90
:10328000350B283C3105C8F42091E3012F702061F3
:103290002093E30126E0289FF001299FF00D1124DF
:1032A000ED54FE4F80818F70806180838EED91E0C0
:1032B0000E943718CF910C94CB1801968770B8CF25
:1032C000CF910895AF92BF92CF92DF92EF92FF928B
:1032D0000F931F93CF93DF93CDB7DEB761970FB6F0
:1032E000F894DEBF0FBECDBF8C0185E0F801DE0192
:1032F0001D9601900D928A95E1F7D8014C91119697
:103300005C9111971296EC903091DE016091DF0193
:103310008091E1019091E201009731F06F3F31F42B
:1033200021E03F3F19F403C021E001C020E0B22FAB
:10333000B170BB2E20FD60C1F801C380D480A09085
:10334000E001AA2009F4EEC02091E301C816D906D5
:1033500028F0D601A81BB90BCD0104C0809590952B
:103360008C0D9D1DFF24F394883C910580F0F12C79
:10337000207F09F09CC07C2DD98AC88A6E2D89894E
:103380000E94AC188EED91E00E9437182DC1822F5B
:10339000807F09F054C0561314C0431312C0FE2C92
:1033A000E1100FC02F7020612093E3010E94EC1800
:1033B0008EED91E00E9437188091E301F80185833A
:1033C0005CC1CD2831F05F3F31F481E04F3F19F40B
:1033D00003C081E001C080E080FD03C081E08E2554
:1033E00002C080E090E0F82FF170FF2E80FF1CC03B
:1033F0008091AC012091AD0136E0821709F41AC129
:1034000090E0389FF001399FF00D1124E255FE4FF6
:103410006181561306C06081461303C06281E612C3
:1034200003C001968770E9CFFE2CEE2009F425C178
:103430008091E30181608093E301F12C1EC156135A
:1034400009C0431307C0E11005C08091E301F801F2
:103450008583A4C04D875E878D859E850E94A718B1
:10346000882379F1EE2069F12091E301822F829582
:103470008F7090E0029774F08091DE019091DF01EF
:1034800098878F831986DB86CA862C87CE0107969C
:103490000E94371886E0F801AEEDB1E001900D9280
:1034A0008A95E1F70E94FA180E94EC180DC0561791
:1034B00071F04D875E878D859E850E94A7188111CA
:1034C0001AC0C8010E943718FF24F394D6C04313D2
:1034D000F0CFE110EECF8091E301F8018583C801C0
:1034E0000E94371886E0EEEDF1E0DF011D928A952B
:1034F000E9F7FA2CC2C0EE2021F32091E301822FDC
:1035000082958F7090E002972CF28091DE0190916D
:10351000DF019A8389831B82DD82CC822E83CE01D8
:103520000196B6CFC816D90628F0F601E81BF90BAC
:10353000CF0104C0809590958C0D9D1D883C910510
:1035400048F0F12C7C2DD98AC88A6E2D89890E9479
:10355000AC184AC0FE2CEE2009F4B3CF561333C08A
:10356000431331C02091E30120FD24C0822F8295B6
:103570008F70482F50E041155105E1F0D8011596A4
:103580002C9315974F30510549F08F5F982F9295E6
:10359000907F822F8F70892B15968C93C8010E9483
:1035A000371886E0F801AEEDB1E001900D928A95F2
:1035B000E1F73DC086E0F801AEEDB1E001900D927B
:1035C0008A95E1F75AC04D875E878D859E850E945A
:1035D000A71881115FCF8091E30181608093E3019F
:1035E000C8010E94371849C0EEEDF1E086E0DF0126
:1035F0001D928A95E9F71BC0EE2009F462CF4D8732
:103600005E878D859E850E94A718F82E882309F471
:1036100058CF86E0F801AEEDB1E001900D928A95A9
:10362000E1F78EED91E00E942B140E94FA180E949F
:10363000EC1823C04D875E878D859E850E94231ED2
:10364000292F22952F70223028F49F7039F0811194
:1036500005C00BC0243028F49F7049F4805E883088
:1036600020F0C8010E943718BF2CFB2C06C0D801DF
:1036700015969C91907F91F7F8CF8F2D61960FB69C
:10368000F894DEBF0FBECDBFDF91CF911F910F9198
:10369000FF90EF90DF90CF90BF90AF9008951F9371
:1036A000CF93DF93CDB7DEB72C970FB6F894DEBF7C
:1036B0000FBECDBF4F83588769877A878B879C87DA
:1036C000CE0107960E9462198823D1F09F818885D8
:1036D0002A853B85232B31F08F3F31F481E09F3FDA
:1036E00019F403C081E001C080E080FD47C04F8134
:1036F000588569857A858B859C850E94BB183EC05C
:1037000086E0FE013796DE01119601900D928A95B2
:10371000E1F7FF81E8856A857B856115710531F0E8
:10372000EF3F31F481E0FF3F19F403C081E001C0B5
:1037300080E080FD23C02091AD0130E0C9010196F9
:10374000877099274091AC0150E084179507F1F1FB
:10375000F983EA837D836C8396E0929FD001939FE7
:10376000B00D1124A255BE4FFE01319601900D926D
:103770009A95E1F78093AD010E94CB1816E08091F5
:10378000AC019091AD01891771F1189FC00111240E
:1037900082559E4F0E946219882329F1E091AC0165
:1037A0001E9FF0011124E255FE4F4081518162813C
:1037B0007381848195810E94BB188091AC0190E057
:1037C0000196877099278093AC01D9CF0E947F180A
:1037D0001092AD011092AC01EEEDF1E086E0DF0158
:1037E0001D928A95E9F72C960FB6F894DEBF0FBEAE
:1037F000CDBFDF91CF911F910895EF92FF920F936C
:103800001F93CF93DF938C01892B09F46CC0F12CAB
:10381000EE24E394E8012196F8018491843740F482
:10382000843008F051C0813081F0823019F15BC0E2
:10383000853709F444C0A8F19CE7980F903708F049
:1038400052C08F770E945B1541C00E5F1F4FFE0173
:10385000849190E2980F983050F48770FE2D01C04B
:10386000FF0F8A95EAF78F2F0E94851E14C00E94D1
:1038700031142DC00E5F1F4FFE01849190E2980F0E
:10388000983060F48770FE2D01C0FF0F8A95EAF72B
:103890008F2F0E948B1E0E94B01E19C00E945B15C4
:1038A00016C00E5F1F4FFE01C491CC2381F08FE93B
:1038B0009FE00197F1F700C00000C150F6CF0E5F06
:1038C0001F4FFE01F49003C00E9431148E018F2D12
:1038D000882309F49FCFEFE9FFE03197F1F700C0AB
:1038E00000008150F5CFDF91CF911F910F91FF9094
:1038F000EF900895089508950C947B1C0C947C1C03
:103900000E947E1C6093150270931602809317022A
:10391000909318020C9465180C94801C0F931F93BD
:103920000091150210911602209117023091180291
:10393000602B712B822B932B1F910F910C94801C69
:103940000F931F93009115021091160220911702F8
:103950003091180260237123822393231F910F91CA
:103960000C94801C0F931F93009115021091160266
:103970002091170230911802602771278227932720
:103980001F910F910C94801C0C947B1C0E94C41CF2
:1039900060931102709312028093130290931402A9
:1039A0000C94651860E070E0CB010C94C61C0F937A
:1039B0001F9341E050E060E070E08A019B0104C089
:1039C000000F111F221F331F8A95D2F7C901B801BA
:1039D0001F910F910C94C61C0F931F9341E050E070
:1039E00060E070E004C0440F551F661F771F8A9582
:1039F000D2F78091110290911202A0911302B0911E
:103A000014028A019B01082B192B2A2B3B2BC9017D
:103A1000B8011F910F910C94C61C0F931F9341E0A6
:103A200050E060E070E004C0440F551F661F771F30
:103A30008A95D2F7409550956095709580911102C6
:103A400090911202A0911302B09114028A019B017D
:103A5000082319232A233B23C901B8011F910F9181
:103A60000C94C61C0F931F9341E050E060E070E09F
:103A700004C0440F551F661F771F8A95D2F78091A7
:103A8000110290911202A0911302B09114028A01C6
:103A90009B01082719272A273B27C901B8011F9135
:103AA0000F910C94C61C0F931F930091110210915B
:103AB00012022091130230911402602B712B822B81
:103AC000932B1F910F910C94C61C0F931F93009181
:103AD00011021091120220911302309114026023FE
:103AE0007123822393231F910F910C94C61C0F9373
:103AF0001F93009111021091120220911302309134
:103B0000140260277127822793271F910F910C942D
:103B1000C61C089527E0929F800D1124E82FE6959A
:103B2000E695E695877051E001C0550F8A95EAF752
:103B300085E0E89FF0011124EC51FE4F20E030E0D9
:103B400070E04081CB01022E02C0969587950A94C1
:103B5000E2F78170819584278523842781932F5FE5
:103B60003F4F2530310569F7089527E0929F800D7A
:103B70001124682F669566956695982F977085E055
:103B8000689FB001112440E050E080E0FB01E40FA9
:103B9000F51FEC51FE4F208130E0092E02C0369512
:103BA00027950A94E2F721703327042E01C0220FD3
:103BB0000A94EAF7822B4F5F5F4F4530510531F78A
:103BC0000895BF92CF92DF92EF92FF920F931F93CF
:103BD000CF93DF938C01C0901102D0901202E0903D
:103BE0001302F09014028091150290911602A09198
:103BF0001702B0911802C82AD92AEA2AFB2ACFE173
:103C0000D0E0D701C6010C2E04C0B695A7959795B4
:103C100087950A94D2F780FD04C0219790F7B12CC4
:103C200007C0BC2EB8018C2F0E9485060197A9F30E
:103C30008B2DDF91CF911F910F91FF90EF90DF902F
:103C4000CF90BF900895CF93DF93EC010E94E11DC8
:103C5000BE010E948506DF91CF9108951F93CF93F7
:103C6000DF93EB019091AB01992321F0CB010E94EE
:103C7000231E13C0882349F0CB010E94E11D182F99
:103C8000682FCE010E948A1D04C0CB010E94B51D81
:103C9000182FBE01812F0E948506DF91CF911F91C1
:103CA000089580911902859585958595089580914F
:103CB00019028770089590911902977081E009F4B4
:103CC00080E0089580912502089590912502892B26
:103CD00080932502089580959091250289238093F1
:103CE0002502089510922502089590912402892BAF
:103CF00080932402089580959091240289238093D3
:103D00002402089510922402089590912302892B91
:103D100080932302089580959091230289238093B4
:103D20002302089510922302089580911A020895A3
:103D300008950C94981E0C94991E90911A0298174D
:103D400021F080931A020C949B1E089580911A0210
:103D5000882329F010921A0280E00C949B1E08958B
:103D6000E0911901F0911A01809125028083E09180
:103D70001901F0911A01908180912402892B80838E
:103D8000E0911901F0911A01908180912302892B11
:103D9000808380911A02882381F0E0911901F091CB
:103DA0001A019081892B80838091190190911A01C9
:103DB0000E94B51F81110E94A61E80911901909149
:103DC0001A010C94F1120C94981E98E0899F9001AE
:103DD0001124262B209319020E94EC1C80911902B9
:103DE0008595859585950C94E31E1092190280E0C7
:103DF0000C94E31E2091190280958223809319026E
:103E0000982F977079F430E0482F082E000C550B4E
:103E10002417350739F08595859585950E940D1DE8
:103E20000C94F51E089580E090E00E94B72C21E0EC
:103E30008C3E9E4F09F020E0822F089582E090E0B2
:103E40000C94A92C83E090E00C94A92CCF9384E0EF
:103E500090E00E94A92CC82F81E290E00E94A92C3A
:103E60002C2F30E0A901582BCA01CF910895CF9390
:103E7000C92F682F84E090E00E94BD2C6C2F81E256
:103E800090E0CF910C94BD2CAB01BC018FE090E091
:103E90000C94CF2CAB01BC0183E190E00C94CF2CAF
:103EA00060E070E0CB010C944A1F60E070E0CB0151
:103EB0000E94441F0C94501F6CEE7EEF80E090E057
:103EC0000E94DB2C60E082E090E00E94BD2C60E06C
:103ED00083E090E00E94BD2C109215021092160211
:103EE000109217021092180260E084E090E00E94A5
:103EF000BD2C60E081E290E00E94BD2C60E085E096
:103F000090E00E94BD2C60E086E090E00E94BD2C15
:103F10006FEF87E090E00E94BD2C40E050E0BA01D6
:103F200088E090E00E94CF2C60E08DE090E00E945D
:103F3000BD2C40E050E0BA0188E190E00E94CF2C17
:103F400060E087E190E00E94BD2C40E050E0BA01C3
:103F50008CE190E00E94CF2C60E080E290E00E9433
:103F6000BD2C0C94551F0C945C1FFC01329697E0FD
:103F700080E0915029F021912223D9F38F5FF9CF6E
:103F800008959C01FC0132969FEF80E04191461715
:103F900089F09F3F19F4411101C0982F8F5F86303F
:103FA000A9F79F3F39F0F901E90FF11D97FDFA9547
:103FB0006283089508959C012A5F3F4FFC0142816E
:103FC000461301C01282019682179307B9F708952C
:103FD0000C94C11F0C94DB1F029626E0FC01119289
:103FE0002A95E9F7089508950C94F31F0C94F31F94
:103FF000CF930E94F61F0E94140A0E94F41FC0E093
:104000008C2F0E941D09811104C0CF5FCA30C1F7F7
:1040100001C081E0CF9108950C94F31F0C940C2003
:104020000E940E2080918402843009F439C01092DD
:10403000270220E488E190E00FB6F894A8958093D9
:1040400060000FBE2093600080E00E9497030E94F2
:1040500012108091280281110AC081E08093280209
:10406000809143028170809329020E94400F0E9438
:104070000E2083B7817F846083BF83B7816083BF55
:104080007894889583B78E7F83BF0FB6F894A895F0
:1040900080916000886180936000109260000FBE84
:1040A00008950C94F31F0E947F180E94E5120E944D
:1040B0009703109228028091290281110E940A1010
:1040C0000E94520F0C9451201F920F920FB60F9224
:1040D00011248F939F93AF93BF93809127028111F7
:1040E00013C080917A0290917B02A0917C02B091E2
:1040F0007D024196A11DB11D80937A0290937B02AF
:10410000A0937C02B0937D02BF91AF919F918F915C
:104110000F900FBE0F901F90189582E084BD93E022
:1041200095BD9AEF97BD80936E0008952FB7F894D0
:1041300080917A0290917B02A0917C02B0917D02E5
:104140002FBF0895CF92DF92EF92FF920F931F93AC
:104150002FB7F89440917A0250917B0260917C02D3
:1041600070917D022FBF6A017B01EE24FF248C0138
:1041700020E030E0C016D106E206F30610F441500C
:1041800051099A01281B390BC9011F910F91FF900A
:10419000EF90DF90CF90089578941F920F920FB612
:1041A0000F9211248F939F93AF93BF9380917A02C4
:1041B00090917B02A0917C02B0917D020196A11D9D
:1041C000B11D80937A0290937B02A0937C02B093FE
:1041D0007D02BF91AF919F918F910F900FBE0F9075
:1041E0001F90189587E797E7909301088093000840
:1041F0009AE088E10FB6F894A895809360000FBE0E
:1042000090936000FFCF0E94131F811102C00E9493
:10421000B31F0E941E1F809326020E94261F9093A8
:104220007F0280937E020E94221F682F70E080E050
:1042300090E00C948C1C80912D0280FF0BC060914B
:104240001E0185E0689FB0011124759567957595ED
:1042500067952BC081FF09C060911E0185E0689FB2
:10426000B00111247595679520C082FF07C0609149
:104270001E0185E0689FB001112417C090912C02A7
:104280009923D1F060911D01961788F720911E01A6
:1042900085E0289F90011124929FA001939F500DCB
:1042A000112470E0CA010E94822C6038710540F42C
:1042B0006115710519F406C065E070E0862F089558
:1042C0008FE7089581E0089580912D0280FF08C056
:1042D00060911C0170E0759567957595679521C093
:1042E00081FF06C060911C0170E07595679519C04B
:1042F00082FF04C060911C0170E010C090912C02FC
:10430000992399F060911B019617A0F780911C01E9
:10431000899FC001112470E00E94822C60387105D1
:1043200040F46115710519F406C061E070E0862F54
:1043300008958FE7089581E00895803F21F40E9459
:104340001B21819504C0813F29F40E941B21809389
:1043500031020895823F21F40E941B21819504C0FF
:10436000833F29F40E941B21809330020895893FE6
:1043700019F40E94642105C08A3F31F40E9464212F
:1043800081958093320208958B3F21F40E9464212D
:10439000819504C08C3F29F40E94642180933302EC
:1043A0000895843F21F480912F02816017C0853FDA
:1043B00021F480912F02826011C0863F21F4809108
:1043C0002F0284600BC0873F21F480912F02886008
:1043D00005C0883F31F480912F02806180932F02C5
:1043E00008958D3F21F480912D0281600BC08E3F96
:1043F00021F480912D02826005C08F3F29F48091C5
:104400002D02846080932D020895803F39F48091BD
:10441000310287FF6CC01092310269C0813F29F4DC
:10442000809131021816BCF362C090913002823F35
:1044300029F497FF5CC01092300259C0833F19F4F1
:104440001916CCF354C0893F41F4809132021816FA
:104450000CF04DC0109232024AC08A3F29F480917C
:10446000320287FF44C0F6CF8B3F39F4809133028C
:1044700087FF3DC0109233023AC08C3F29F48091EF
:1044800033021816BCF333C0843F21F480912F020D
:104490008E7F17C0853F21F480912F028D7F11C040
:1044A000863F21F480912F028B7F0BC0873F21F440
:1044B00080912F02877F05C0883F31F480912F02C1
:1044C0008F7E80932F0213C08D3F21F480912D02A7
:1044D0008E7F0BC08E3F21F480912D028D7F05C011
:1044E0008F3F29F480912D028B7F80932D02809144
:1044F000300281110EC08091310281110AC0809179
:104500003202811106C080913302811102C01092E3
:104510002C0208958EE292E00E94FC120E949620E6
:1045200090932B0280932A0208951F93CF93DF93D9
:1045300080912A0290912B020E94A220AC019091BE
:104540002C02992321F020911F0130E006C0209118
:1045500020018AE0289F900111244217530708F494
:104560007BC080913002C0913102D0913202109113
:104570003302811107C0C1116BC0D11169C0111183
:1045800067C06AC09F3F19F09F5F90932C02181676
:1045900024F40E941B21809330028091300287FF17
:1045A00005C00E941B218195809330021C1624F4C3
:1045B0000E941B21809331028091310287FF05C048
:1045C0000E941B2181958093310230913002332368
:1045D000E1F0209131022223C1F045EB3403C00108
:1045E0001124992319F09093300203C081E0809345
:1045F000300235EB2303C0011124992319F0909365
:10460000310203C081E0809331021D1624F40E9420
:104610006421809332028091320287FF05C00E949C
:104620006421819580933202111624F40E94642142
:10463000809333028091330287FF05C00E9464217A
:10464000819580933302DF91CF911F910C948A2240
:104650009F3F09F099CFAACFDF91CF911F91089585
:10466000EEE2F2E086E0DF011D928A95E9F7109212
:104670002C0210922D020895833081F128F48130AC
:1046800059F08230D1F00895853009F449C0B8F16D
:10469000863009F456C0089580912001262F30E01D
:1046A000280F311D2F3F310524F4680F609320013E
:1046B00008958FEF80932001089580911F01262F88
:1046C00030E0280F311D2F3F310524F4680F60932F
:1046D0001F0108958FEF80931F01089580911E019F
:1046E000262F30E0280F311D2F3F310524F4680FAD
:1046F00060931E0108958FEF80931E0108958091AD
:104700001D01262F30E0280F311D2F3F310524F4E5
:10471000680F60931D0108958FEF80931D01089528
:1047200080911C01262F30E0280F311D2F3F3105CD
:1047300024F4680F60931C0108958FEF80931C018F
:10474000089580911B01262F30E0280F311D2F3F47
:10475000310524F4680F60931B0108958FEF809357
:104760001B010895833011F128F4813049F0823023
:1047700091F00895853081F120F18630C1F10895DE
:1047800080912001681720F4861B809320010895F2
:1047900010922001089580911F01681720F4861B54
:1047A00080931F01089510921F01089580911E01AA
:1047B000681720F4861B80931E01089510921E0135
:1047C000089580911D01681720F4861B80931D01B8
:1047D000089510921D01089580911C01681720F41E
:1047E000861B80931C01089510921C0108958091EE
:1047F0001B01681720F4861B80931B0108951092FB
:104800001B0108950F931F9341E050E060E070E0BA
:104810008A019B0104C0000F111F221F331F8A95BC
:10482000D2F7C901B8010E948C1C1F910F910C9402
:104830007F188B3109F474C058F58B3009F492C09D
:1048400078F4863009F446C020F4853009F44CC071
:104850008BC0873009F456C0883009F483C084C007
:10486000803109F470C068F48E3009F07DC0809109
:10487000260282FB222720F991E0922790FB82F901
:1048800058C0863109F46EC0893109F46BC06CC020
:104890008A32E9F060F4873209F461C028F48E317D
:1048A00008F462C08D515CC08932F1F05DC0833480
:1048B00050F48A3308F051C0853309F450C088336E
:1048C00009F450C051C0833409F449C04DC00E945E
:1048D000B31F48C080912602817F8E7F809326027D
:1048E00081E08093350208950E947F182FEF83EDB9
:1048F00090E3215080409040E1F700C000000E940A
:10490000F22030C080912602982F9095917090FBF4
:1049100080F980932602911125C0897F877F10C07E
:104920008091260281FB222720F991E0922790FBBB
:1049300081F9809326029923A9F080912602816053
:10494000809326020FC08091260283FB222720F944
:1049500091E0922790FB83F9ECCF895301C080E06E
:104960000E94022481E0089580E0089580E0089587
:104970000C94B6248E518A3030F4E82FF0E0EE59D2
:10498000FE4F8081089580E00895CF93C82F8091D5
:104990003502813051F018F0823099F17DC00E94CB
:1049A000621E823209F07AC004C00E94621E823206
:1049B00061F48C2F0E94B824811104C08C2F0E94B6
:1049C00019241DC081E090E01AC08C2F0E94B624EB
:1049D000811114C0C43179F048F4CB3079F0C03182
:1049E00009F060C082E08093350208C0C93219F036
:1049F000C83321F057C01092350254C081E0817055
:104A000053C0C93289F118F5C43171F1B0F4C7301F
:104A100009F046C08EE18093200182E380931F015C
:104A20008AE080931E0184E180931D0188E08093D9
:104A30001C0188E280931B0133C082EE8C0F86300C
:104A400078F58C2F0E94BA248093340229C0CE348A
:104A5000E9F020F4CB3421F56AE013C0C13579F0D8
:104A6000C235F1F461E00DC080913402882319F061
:104A70001092340215C081E08093350215C061E0C8
:104A800006C0809134020E943C230AC06AE08091F3
:104A900034020E94B22304C01092350280E004C0A8
:104AA00081E002C080E0ABCFCF91089580913E02BB
:104AB00008950F931F93CF93DF9300D01F92CDB72C
:104AC000DEB78C010E94B327823011F0843021F5CB
:104AD00084E089831B830A8382E08093E9008FEF5F
:104AE0009091E800815095FD06C095ED9A95F1F7FB
:104AF00000008111F5CF8091E80085FF0DC040E0F6
:104B000050E063E070E0CE0101960E94D0278091D2
:104B1000E8008E778093E8000F900F900F90DF9160
:104B2000CF911F910F910895CF93DF9300D01F92E3
:104B3000CDB7DEB720918402243031F523E02983FC
:104B4000805891099B838A8382E08093E9008FEFEC
:104B50009091E800815095FD06C095ED9A95F1F78A
:104B600000008111F5CF8091E80085FF0DC040E085
:104B700050E063E070E0CE0101960E94D027809162
:104B8000E8008E778093E8000F900F900F90DF91F0
:104B9000CF910895CF93DF93EC010E94B327823029
:104BA00011F08430F9F482E08093E9008FEF909166
:104BB000E800815095FD06C095ED9A95F1F700004B
:104BC0008111F5CF8091E80085FF0CC040E050E0F6
:104BD00066E070E0CE010E94D0278091E8008E77D9
:104BE0008093E800DF91CF910895CF93DF93EC019C
:104BF0000E94B327823011F0843039F581E0809330
:104C0000E9008FEF9091E800815095FD06C095ED89
:104C10009A95F1F700008111F5CF8091E80085FFAA
:104C200014C040E050E068E070E0CE010E94D02760
:104C30008091E8008E778093E80088E0FE01A6E38B
:104C4000B2E001900D928A95E1F7DF91CF9108953E
:104C500080918302811109C00E9461290E94BE29AE
:104C60008091E20084608093E200089510928302B4
:104C70000895089508950C94532042E061EC81E07A
:104C80000E94DA2842E261EC82E00C94DA288091FA
:104C90008602833009F460C030F4813071F08230D4
:104CA00009F499C008958A3009F485C08B3009F45D
:104CB0006BC0893009F0A7C020C080918502813A7D
:104CC00009F0A1C08091E800877F8093E80080917F
:104CD000890290918A02892B21F468E086E392E0B0
:104CE00003C060E080E090E070E00E941B288091AB
:104CF000E8008B778093E8000895809185028132E7
:104D000009F081C08091890290918A02029708F08F
:104D10007AC08091E800877F8093E8008091E80066
:104D200082FD05C0809184028111F8CF6CC0209172
:104D3000F3008091F20090E0922B029729F4809189
:104D4000F1008B7F813021F48091F10080933E024D
:104D50008091E8008B7753C080918502813A09F0F9
:104D600052C08091890290918A02892B09F04BC030
:104D70008091E800877F8093E8008091E80080FFC1
:104D8000FCCF80912B0136C0809185028132D9F50C
:104D90008091890290918A02892BA9F58091E8007F
:104DA000877F8093E8000E940F298091870280937B
:104DB0002B010C947F1880918502813221F580911E
:104DC000E800877F8093E8000E940F298091880285
:104DD00080933F02089580918502813AA1F48091E9
:104DE000E800877F8093E8008091E80080FFFCCF97
:104DF00080913F028093F1008091E8008E7780934C
:104E0000E8000C940F29089584B7877F84BF0FB6FC
:104E1000F894A8958091600088618093600010925A
:104E200060000FBE80E880936100109261000E94D4
:104E300044130E9461290E94BE298091E20084608F
:104E40008093E20078940E94532C0E944A1381E2DE
:104E500091E00E94E01280918402853069F40E9402
:104E60001020809182028823B1F30E94F81F8823CA
:104E700091F30E94BA27EFCF0E9454130E9415109D
:104E8000EACF0C944327292F332723303105C9F06B
:104E900060F42130310581F02230310509F04AC03B
:104EA0008BE390E02DEE34E049C02132310511F161
:104EB0002232310579F13EC082E190E028E235E00E
:104EC0003DC099278130910561F040F08230910515
:104ED00059F0039779F5E7EBF4E008C0E9EEF4E068
:104EE00005C0E7EDF4E002C0EDEBF4E0849190E062
:104EF0009F0124C06115710541F061307105D1F445
:104F000089E090E028E135E019C089E090E02FEFDA
:104F100034E014C06115710541F06130710551F440
:104F200085E890E02AE335E009C080E490E02FEBCB
:104F300035E004C080E090E020E030E0FA01318309
:104F4000208308950895CF93C82F0E94A227C0936D
:104F50004002CF91089580918402843011F081E065
:104F6000089582E0089580914002811102C00C945E
:104F7000AB27089580E189BD82E189BD09B400FEB7
:104F8000FDCF8091D8008F7D8093D8008091E00084
:104F900082608093E0008091E00081FDFCCF089565
:104FA000CF92DF92EF92FF920F931F93CF93DF93F5
:104FB000EC018B017A010E942E29811133C0E1148A
:104FC000F10439F0F70180819181081B190BC80F9A
:104FD000D91FC12CD12C0115110519F18091E800C0
:104FE00085FD16C08091E8008E778093E800E1147B
:104FF000F10449F0F70180819181C80ED91ED18258
:10500000C08285E00FC00E942E29882321F30AC0A8
:1050100089918093F10001501109FFEFCF1ADF0A47
:10502000DACF80E0DF91CF911F910F91FF90EF9049
:10503000DF90CF90089520918B0230918C0226173B
:10504000370748F06115710539F42091E8002E7793
:105050002093E80001C0B901FC0120E06115710551
:1050600079F1809184028823F1F18530F1F180910A
:10507000E80083FD3CC08091E80082FD2EC0809155
:10508000E80080FFEBCF2091F3008091F20090E0E8
:10509000922B6115710551F08830910538F42191FA
:1050A0002093F100615071090196F3CF21E0089738
:1050B00009F020E08091E8008E778093E800CECF61
:1050C0002111CFCF0AC080918402882361F08530FE
:1050D00061F08091E80083FD0AC08091E80082FFC2
:1050E000F2CF80E0089582E0089583E0089581E0A2
:1050F000089520918B0230918C022617370748F0D3
:105100006115710539F42091E8002E772093E800AD
:1051100001C0B901FC0120E06115710591F1809198
:105120008402882309F440C0853009F43FC080918F
:10513000E80083FD3DC08091E80082FD2FC0809192
:10514000E80080FFE9CF2091F3008091F20090E029
:10515000922B6115710559F08830910540F4249126
:105160002093F1003196615071090196F2CF21E050
:10517000089709F020E08091E8008E778093E8009E
:10518000CBCF2111CCCF0AC080918402882361F05B
:10519000853061F08091E80083FD0AC08091E800CD
:1051A00082FFF2CF80E0089582E0089583E00895C1
:1051B00081E00895982F973068F59093E90098174B
:1051C00039F07091EC002091ED005091F00003C097
:1051D000242F762F50E021FD02C09F5FECCF30914D
:1051E000EB003E7F3093EB003091ED003D7F30933C
:1051F000ED003091EB0031603093EB007093EC00E8
:105200002093ED005093F0002091EE0027FDE5CFB4
:1052100080E008958F708093E90081E00895809187
:10522000850287FF11C08091E80082FD05C0809152
:1052300084028111F8CF11C08091E8008B770BC0F8
:1052400080918402882349F08091E80080FFF8CFA4
:105250008091E8008E778093E80008952091E40023
:105260003091E50095E64091EC00842F817040FF7D
:1052700023C08091E80080FD1DC0809184028823B6
:1052800099F0853099F08091EB0085FD11C0409137
:10529000E4005091E5002417350729F3915011F0EF
:1052A0009A01E1CF84E0089582E0089583E00895B3
:1052B00081E0089580E008954091E80042FFDDCF4D
:1052C00008950E94CF290E94D729E0EEF0E0808166
:1052D00081608083E8EDF0E080818F77808319BC66
:1052E000A7EDB0E08C918E7F8C9380818F7E808340
:1052F0001092830208950F931F93CF93DF930E9420
:10530000CF290E94D729C8EDD0E088818F77888384
:1053100088818068888388818F7D888319BC1092FA
:10532000840210928002109282021092810200EE9A
:1053300010E0F80180818B7F808388818160888381
:1053400042E060E080E00E94DA28E1EEF0E0808157
:105350008E7F8083E2EEF0E08081816080838081B7
:1053600088608083F80180818E7F8083888180615E
:105370008883DF91CF911F910F910895E8EDF0E0C0
:1053800080818F7E8083E7EDF0E080818160808383
:1053900084E082BF81E0809383020C947B29E8ED56
:1053A000F0E080818E7F80831092E2000895109259
:1053B000DA001092E10008951F920F920FB60F923B
:1053C00011242F933F934F935F936F937F938F930A
:1053D0009F93AF93BF93EF93FF938091E10082FF80
:1053E0000BC08091E20082FF07C08091E1008B7FBB
:1053F0008093E1000E94522C8091DA0080FF1FC050
:105400008091D80080FF1BC08091DA008E7F80934E
:10541000DA008091D90080FF0DC080E189BD82E172
:1054200089BD09B400FEFDCF81E0809384020E9413
:10543000282605C019BC109284020E94362680914D
:10544000E10080FF19C08091E20080FF15C08091CB
:10545000E2008E7F8093E2008091E2008061809381
:10546000E2008091D80080628093D80019BC85E06A
:10547000809384020E943A268091E10084FF30C02C
:105480008091E20084FF2CC080E189BD82E189BD6A
:1054900009B400FEFDCF8091D8008F7D8093D800A5
:1054A0008091E1008F7E8093E1008091E2008F7E09
:1054B0008093E2008091E20081608093E20080911D
:1054C0008002882311F084E007C08091E30087FD0B
:1054D00002C081E001C083E0809384020E943B26E9
:1054E0008091E10083FF29C08091E20083FF25C005
:1054F0008091E100877F8093E10082E080938402C5
:10550000109280028091E1008E7F8093E100809173
:10551000E2008E7F8093E2008091E20080618093C0
:10552000E20042E060E080E00E94DA288091F00032
:1055300088608093F0000E943926FF91EF91BF911F
:10554000AF919F918F917F916F915F914F913F911B
:105550002F910F900FBE0F901F9018951F920F92D2
:105560000FB60F9211242F933F934F935F936F9336
:105570007F938F939F93AF93BF93CF93DF93EF93DB
:10558000FF93C091E900CF708091EC00D82FD170CB
:1055900080FDD0E81092E9008091F000877F809331
:1055A000F00078940E94F22A1092E9008091F000B5
:1055B00088608093F000CD2BCF70C093E900FF91FD
:1055C000EF91DF91CF91BF91AF919F918F917F919B
:1055D0006F915F914F913F912F910F900FBE0F9060
:1055E0001F9018951F93CF93DF93CDB7DEB7AA977F
:1055F0000FB6F894DEBF0FBECDBFE5E8F2E08091B4
:10560000F100819322E0ED38F207C9F70E944726A6
:105610008091E80083FF2EC18091850290918602DF
:10562000492F50E04A30510508F024C1FA01EC58E6
:10563000FF4F0C94962C803821F0823809F01AC163
:1056400008C08091810290918202992389F0826042
:105650000FC0809189028F70873008F00BC1809352
:10566000E9008091EB0085FB882780F91092E90022
:105670009091E800977F9093E8008093F10010925A
:10568000F100D1C0282F2D7F09F0F4C0882319F034
:10569000823061F0EFC080918702813009F0EAC06A
:1056A000933009F080E0809382022EC080918702BF
:1056B00081112AC0809189028F702FEF280F263028
:1056C00008F0D8C08093E9002091EB0020FF1CC0B7
:1056D000933021F48091EB00806214C09091EB0034
:1056E00090619093EB0021E030E0A90102C0440FEB
:1056F000551F8A95E2F74093EA001092EA008091E4
:10570000EB0088608093EB001092E9008091E80044
:10571000877F8093E8000E940F29ACC08111AAC046
:10572000109187021F778091E3008078812B80930E
:10573000E3008091E800877F8093E8000E940F29B2
:105740008091E80080FFFCCF8091E3008068809327
:10575000E300111102C082E001C083E08093840263
:1057600089C08058823008F085C08091870290916E
:1057700088028C3D53E0950779F583E08A838AE2BD
:1057800089834FB7F894DE01139620E03EE051E2A2
:10579000E32FF0E050935700E49120FF03C0E2951F
:1057A000EF703F5FEF708E2F90E0EA3010F0C796F9
:1057B00001C0C0968D939D932F5F243149F74FBF51
:1057C0008091E800877F8093E8006AE270E0CE0174
:1057D00001960E941B2816C06091890270918A026E
:1057E000AE014F5F5F4F0E944127BC01892B09F436
:1057F00041C09091E800977F9093E80089819A8159
:105800000E9479288091E8008B778093E80032C06D
:10581000803881F58091E800877F8093E80080914F
:1058200080028093F1008091E8008E7772CF811121
:1058300021C0809187029091880299270297D4F421
:105840008091E800877F8093E800809187028093B1
:1058500080020E940F2980918002811106C08091F0
:10586000E30087FD02C081E001C084E080938402F0
:105870000E943D268091E80083FF0AC08091E800E5
:10588000877F8093E8008091EB0080628093EB003B
:10589000AA960FB6F894DEBF0FBECDBFDF91CF91B1
:1058A0001F9108950895CF93809184028823A1F0D9
:1058B000C091E900CF709091EC00892F817090FD2C
:1058C00080E8C82B1092E9008091E80083FD0E94D7
:1058D000F22ACF70C093E900CF910895AA1BBB1B99
:1058E00051E107C0AA1FBB1FA617B70710F0A61BE0
:1058F000B70B881F991F5A95A9F780959095BC0101
:10590000CD01089597FB072E16F4009407D077FD7C
:1059100009D00E946E2C07FC05D03EF4909581952D
:105920009F4F0895709561957F4F0895EE0FFF1F6B
:105930000590F491E02D0994FC014150504030F065
:1059400001900616D1F73197CF010895882799273E
:105950000895F999FECF92BD81BDF89A992780B537
:105960000895A6E1B0E044E050E00C94E32CA8E1F7
:10597000B0E042E050E00C94E32C262FF999FECFE2
:1059800092BD81BDF89A019700B4021639F01FBA92
:1059900020BD0FB6F894FA9AF99A0FBE08950396AF
:1059A000272F0E94BE2C0E94BD2C252F0E94BE2CAA
:1059B000242F0C94BE2C0196272F0E94BE2C0C94F1
:1059C000BD2CDC01CB01FC01F999FECF06C0F2BD74
:1059D000E1BDF89A319600B40D9241505040B8F7AD
:0659E0000895F894FFCFCA
:1059E60001810100820105820101021010100119D6
:1059F6001A1B1C1D1E1F2021221B022808140A32F6
:105A06001E5625F525CA259425592501323331F729
:105A1600F694366697C63435000000000000010291
:105A26000202020606060909090909090F0F0F0FE6
:105A36000F0F1515151819191919191919191919F1
:0C5A4600232401020304050607080900E0
:00000001FF
